{
  "contractName": "GoodReserveCDai",
  "abi": [
    {
      "inputs": [
        {
          "internalType": "contract ERC20",
          "name": "_dai",
          "type": "address"
        },
        {
          "internalType": "contract cERC20",
          "name": "_cDai",
          "type": "address"
        },
        {
          "internalType": "address",
          "name": "_fundManager",
          "type": "address"
        },
        {
          "internalType": "contract Avatar",
          "name": "_avatar",
          "type": "address"
        },
        {
          "internalType": "contract Identity",
          "name": "_identity",
          "type": "address"
        },
        {
          "internalType": "address",
          "name": "_marketMaker",
          "type": "address"
        },
        {
          "internalType": "contract ContributionCalc",
          "name": "_contribution",
          "type": "address"
        },
        {
          "internalType": "uint256",
          "name": "_blockInterval",
          "type": "uint256"
        }
      ],
      "payable": false,
      "stateMutability": "nonpayable",
      "type": "constructor"
    },
    {
      "anonymous": false,
      "inputs": [
        {
          "indexed": true,
          "internalType": "address",
          "name": "caller",
          "type": "address"
        },
        {
          "indexed": false,
          "internalType": "address",
          "name": "prevAddress",
          "type": "address"
        },
        {
          "indexed": false,
          "internalType": "address",
          "name": "newAddress",
          "type": "address"
        }
      ],
      "name": "ContributionAddressUpdated",
      "type": "event"
    },
    {
      "anonymous": false,
      "inputs": [
        {
          "indexed": true,
          "internalType": "address",
          "name": "previousOwner",
          "type": "address"
        },
        {
          "indexed": true,
          "internalType": "address",
          "name": "newOwner",
          "type": "address"
        }
      ],
      "name": "OwnershipTransferred",
      "type": "event"
    },
    {
      "anonymous": false,
      "inputs": [
        {
          "indexed": true,
          "internalType": "address",
          "name": "by",
          "type": "address"
        },
        {
          "indexed": false,
          "internalType": "uint256",
          "name": "time",
          "type": "uint256"
        }
      ],
      "name": "SchemeEnded",
      "type": "event"
    },
    {
      "anonymous": false,
      "inputs": [
        {
          "indexed": true,
          "internalType": "address",
          "name": "by",
          "type": "address"
        },
        {
          "indexed": false,
          "internalType": "uint256",
          "name": "time",
          "type": "uint256"
        }
      ],
      "name": "SchemeStarted",
      "type": "event"
    },
    {
      "anonymous": false,
      "inputs": [
        {
          "indexed": true,
          "internalType": "address",
          "name": "caller",
          "type": "address"
        },
        {
          "indexed": true,
          "internalType": "address",
          "name": "reserveToken",
          "type": "address"
        },
        {
          "indexed": false,
          "internalType": "uint256",
          "name": "reserveAmount",
          "type": "uint256"
        },
        {
          "indexed": false,
          "internalType": "uint256",
          "name": "minReturn",
          "type": "uint256"
        },
        {
          "indexed": false,
          "internalType": "uint256",
          "name": "actualReturn",
          "type": "uint256"
        }
      ],
      "name": "TokenPurchased",
      "type": "event"
    },
    {
      "anonymous": false,
      "inputs": [
        {
          "indexed": true,
          "internalType": "address",
          "name": "caller",
          "type": "address"
        },
        {
          "indexed": true,
          "internalType": "address",
          "name": "reserveToken",
          "type": "address"
        },
        {
          "indexed": false,
          "internalType": "uint256",
          "name": "gdAmount",
          "type": "uint256"
        },
        {
          "indexed": false,
          "internalType": "uint256",
          "name": "contributionAmount",
          "type": "uint256"
        },
        {
          "indexed": false,
          "internalType": "uint256",
          "name": "minReturn",
          "type": "uint256"
        },
        {
          "indexed": false,
          "internalType": "uint256",
          "name": "actualReturn",
          "type": "uint256"
        }
      ],
      "name": "TokenSold",
      "type": "event"
    },
    {
      "anonymous": false,
      "inputs": [
        {
          "indexed": true,
          "internalType": "uint256",
          "name": "day",
          "type": "uint256"
        },
        {
          "indexed": true,
          "internalType": "address",
          "name": "interestToken",
          "type": "address"
        },
        {
          "indexed": false,
          "internalType": "uint256",
          "name": "interestReceived",
          "type": "uint256"
        },
        {
          "indexed": false,
          "internalType": "uint256",
          "name": "gdInterestMinted",
          "type": "uint256"
        },
        {
          "indexed": false,
          "internalType": "uint256",
          "name": "gdExpansionMinted",
          "type": "uint256"
        },
        {
          "indexed": false,
          "internalType": "uint256",
          "name": "gdInterestTransferred",
          "type": "uint256"
        },
        {
          "indexed": false,
          "internalType": "uint256",
          "name": "gdUbiTransferred",
          "type": "uint256"
        }
      ],
      "name": "UBIMinted",
      "type": "event"
    },
    {
      "constant": true,
      "inputs": [],
      "name": "blockInterval",
      "outputs": [
        {
          "internalType": "uint256",
          "name": "",
          "type": "uint256"
        }
      ],
      "payable": false,
      "stateMutability": "view",
      "type": "function"
    },
    {
      "constant": true,
      "inputs": [],
      "name": "cDai",
      "outputs": [
        {
          "internalType": "contract cERC20",
          "name": "",
          "type": "address"
        }
      ],
      "payable": false,
      "stateMutability": "view",
      "type": "function"
    },
    {
      "constant": true,
      "inputs": [],
      "name": "contribution",
      "outputs": [
        {
          "internalType": "contract ContributionCalc",
          "name": "",
          "type": "address"
        }
      ],
      "payable": false,
      "stateMutability": "view",
      "type": "function"
    },
    {
      "constant": true,
      "inputs": [],
      "name": "dai",
      "outputs": [
        {
          "internalType": "contract ERC20",
          "name": "",
          "type": "address"
        }
      ],
      "payable": false,
      "stateMutability": "view",
      "type": "function"
    },
    {
      "constant": true,
      "inputs": [],
      "name": "fundManager",
      "outputs": [
        {
          "internalType": "address",
          "name": "",
          "type": "address"
        }
      ],
      "payable": false,
      "stateMutability": "view",
      "type": "function"
    },
    {
      "constant": true,
      "inputs": [],
      "name": "identity",
      "outputs": [
        {
          "internalType": "contract Identity",
          "name": "",
          "type": "address"
        }
      ],
      "payable": false,
      "stateMutability": "view",
      "type": "function"
    },
    {
      "constant": true,
      "inputs": [],
      "name": "isActive",
      "outputs": [
        {
          "internalType": "bool",
          "name": "",
          "type": "bool"
        }
      ],
      "payable": false,
      "stateMutability": "view",
      "type": "function"
    },
    {
      "constant": true,
      "inputs": [],
      "name": "isOwner",
      "outputs": [
        {
          "internalType": "bool",
          "name": "",
          "type": "bool"
        }
      ],
      "payable": false,
      "stateMutability": "view",
      "type": "function"
    },
    {
      "constant": true,
      "inputs": [],
      "name": "isRegistered",
      "outputs": [
        {
          "internalType": "bool",
          "name": "",
          "type": "bool"
        }
      ],
      "payable": false,
      "stateMutability": "view",
      "type": "function"
    },
    {
      "constant": true,
      "inputs": [
        {
          "internalType": "address",
          "name": "scheme",
          "type": "address"
        }
      ],
      "name": "isRegistered",
      "outputs": [
        {
          "internalType": "bool",
          "name": "",
          "type": "bool"
        }
      ],
      "payable": false,
      "stateMutability": "view",
      "type": "function"
    },
    {
      "constant": true,
      "inputs": [],
      "name": "lastMinted",
      "outputs": [
        {
          "internalType": "uint256",
          "name": "",
          "type": "uint256"
        }
      ],
      "payable": false,
      "stateMutability": "view",
      "type": "function"
    },
    {
      "constant": true,
      "inputs": [],
      "name": "marketMaker",
      "outputs": [
        {
          "internalType": "contract GoodMarketMaker",
          "name": "",
          "type": "address"
        }
      ],
      "payable": false,
      "stateMutability": "view",
      "type": "function"
    },
    {
      "constant": true,
      "inputs": [],
      "name": "owner",
      "outputs": [
        {
          "internalType": "address",
          "name": "",
          "type": "address"
        }
      ],
      "payable": false,
      "stateMutability": "view",
      "type": "function"
    },
    {
      "constant": true,
      "inputs": [],
      "name": "periodEnd",
      "outputs": [
        {
          "internalType": "uint256",
          "name": "",
          "type": "uint256"
        }
      ],
      "payable": false,
      "stateMutability": "view",
      "type": "function"
    },
    {
      "constant": true,
      "inputs": [],
      "name": "periodStart",
      "outputs": [
        {
          "internalType": "uint256",
          "name": "",
          "type": "uint256"
        }
      ],
      "payable": false,
      "stateMutability": "view",
      "type": "function"
    },
    {
      "constant": false,
      "inputs": [],
      "name": "renounceOwnership",
      "outputs": [],
      "payable": false,
      "stateMutability": "nonpayable",
      "type": "function"
    },
    {
      "constant": false,
      "inputs": [
        {
          "internalType": "contract Avatar",
          "name": "_avatar",
          "type": "address"
        }
      ],
      "name": "setAvatar",
      "outputs": [],
      "payable": false,
      "stateMutability": "nonpayable",
      "type": "function"
    },
    {
      "constant": false,
      "inputs": [
        {
          "internalType": "contract Identity",
          "name": "_identity",
          "type": "address"
        }
      ],
      "name": "setIdentity",
      "outputs": [],
      "payable": false,
      "stateMutability": "nonpayable",
      "type": "function"
    },
    {
      "constant": false,
      "inputs": [
        {
          "internalType": "address",
          "name": "newOwner",
          "type": "address"
        }
      ],
      "name": "transferOwnership",
      "outputs": [],
      "payable": false,
      "stateMutability": "nonpayable",
      "type": "function"
    },
    {
      "constant": false,
      "inputs": [],
      "name": "start",
      "outputs": [],
      "payable": false,
      "stateMutability": "nonpayable",
      "type": "function"
    },
    {
      "constant": false,
      "inputs": [
        {
          "internalType": "address",
          "name": "_marketMaker",
          "type": "address"
        }
      ],
      "name": "setMarketMaker",
      "outputs": [],
      "payable": false,
      "stateMutability": "nonpayable",
      "type": "function"
    },
    {
      "constant": false,
      "inputs": [
        {
          "internalType": "address",
          "name": "_fundManager",
          "type": "address"
        }
      ],
      "name": "setFundManager",
      "outputs": [],
      "payable": false,
      "stateMutability": "nonpayable",
      "type": "function"
    },
    {
      "constant": false,
      "inputs": [
        {
          "internalType": "uint256",
          "name": "_blockInterval",
          "type": "uint256"
        }
      ],
      "name": "setBlockInterval",
      "outputs": [],
      "payable": false,
      "stateMutability": "nonpayable",
      "type": "function"
    },
    {
      "constant": false,
      "inputs": [
        {
          "internalType": "address",
          "name": "_contribution",
          "type": "address"
        }
      ],
      "name": "setContributionAddress",
      "outputs": [],
      "payable": false,
      "stateMutability": "nonpayable",
      "type": "function"
    },
    {
      "constant": false,
      "inputs": [
        {
          "internalType": "contract ERC20",
          "name": "_buyWith",
          "type": "address"
        },
        {
          "internalType": "uint256",
          "name": "_tokenAmount",
          "type": "uint256"
        },
        {
          "internalType": "uint256",
          "name": "_minReturn",
          "type": "uint256"
        }
      ],
      "name": "buy",
      "outputs": [
        {
          "internalType": "uint256",
          "name": "",
          "type": "uint256"
        }
      ],
      "payable": false,
      "stateMutability": "nonpayable",
      "type": "function"
    },
    {
      "constant": false,
      "inputs": [
        {
          "internalType": "contract ERC20",
          "name": "_sellTo",
          "type": "address"
        },
        {
          "internalType": "uint256",
          "name": "_gdAmount",
          "type": "uint256"
        },
        {
          "internalType": "uint256",
          "name": "_minReturn",
          "type": "uint256"
        }
      ],
      "name": "sell",
      "outputs": [
        {
          "internalType": "uint256",
          "name": "",
          "type": "uint256"
        }
      ],
      "payable": false,
      "stateMutability": "nonpayable",
      "type": "function"
    },
    {
      "constant": true,
      "inputs": [
        {
          "internalType": "contract ERC20",
          "name": "_token",
          "type": "address"
        }
      ],
      "name": "currentPrice",
      "outputs": [
        {
          "internalType": "uint256",
          "name": "",
          "type": "uint256"
        }
      ],
      "payable": false,
      "stateMutability": "view",
      "type": "function"
    },
    {
      "constant": true,
      "inputs": [],
      "name": "canMint",
      "outputs": [
        {
          "internalType": "bool",
          "name": "",
          "type": "bool"
        }
      ],
      "payable": false,
      "stateMutability": "view",
      "type": "function"
    },
    {
      "constant": false,
      "inputs": [
        {
          "internalType": "contract ERC20",
          "name": "_interestToken",
          "type": "address"
        },
        {
          "internalType": "uint256",
          "name": "_transfered",
          "type": "uint256"
        },
        {
          "internalType": "uint256",
          "name": "_interest",
          "type": "uint256"
        }
      ],
      "name": "mintInterestAndUBI",
      "outputs": [
        {
          "internalType": "uint256",
          "name": "",
          "type": "uint256"
        },
        {
          "internalType": "uint256",
          "name": "",
          "type": "uint256"
        }
      ],
      "payable": false,
      "stateMutability": "nonpayable",
      "type": "function"
    },
    {
      "constant": false,
      "inputs": [],
      "name": "end",
      "outputs": [],
      "payable": false,
      "stateMutability": "nonpayable",
      "type": "function"
    },
    {
      "constant": false,
      "inputs": [
        {
          "internalType": "contract ERC20",
          "name": "_token",
          "type": "address"
        }
      ],
      "name": "recover",
      "outputs": [],
      "payable": false,
      "stateMutability": "nonpayable",
      "type": "function"
    }
  ],
  "bytecode": "0x6080604052600280546001600160a01b03191690553480156200002157600080fd5b5060405162002b1338038062002b1383398181016040526101008110156200004857600080fd5b50805160208201516040808401516060850151608086015160a087015160c088015160e090980151600080546001600160a01b0319163317808255965198999798959794969395929493919242926002840292899289928492849284926001600160a01b031691907f8be0079c531659141344cd1fd0a4f28419497f9722a3daafe3b4186f6b6457e0908290a3600180546001600160a01b0319166001600160a01b03838116919091179182905516156200019a57600160009054906101000a90046001600160a01b03166001600160a01b0316638da5cb5b6040518163ffffffff1660e01b815260040160206040518083038186803b1580156200014c57600080fd5b505afa15801562000161573d6000803e3d6000fd5b505050506040513d60208110156200017857600080fd5b5051600280546001600160a01b0319166001600160a01b039092169190911790555b506001600160a01b038116620001f7576040805162461bcd60e51b815260206004820152601960248201527f537570706c696564206964656e74697479206973206e756c6c00000000000000604482015290519081900360640190fd5b600380546001600160a01b0319166001600160a01b03929092169190911790555050818310620002595760405162461bcd60e51b815260040180806020018281038252602681526020018062002aed6026913960400191505060405180910390fd5b60049290925560055560068054610100600160a81b0319166101006001600160a01b03938416021760ff19169055600780546001600160a01b03199081168b8416179091556008805482168a8416179055600a8054821689841617905560098054909116918516919091179055600b819055620002e3438262000314602090811b6200212117901c565b600c5550600d80546001600160a01b0319166001600160a01b03929092169190911790555062000338945050505050565b60008082116200032357600080fd5b60008284816200032f57fe5b04949350505050565b6127a580620003486000396000f3fe608060405234801561001057600080fd5b50600436106101e55760003560e01c80638f32d59b1161010f578063c3c5a547116100a2578063efbe1c1c11610071578063efbe1c1c14610484578063f2fde38b1461048c578063f4b9fa75146104b2578063f54c42d7146104ba576101e5565b8063c3c5a54714610428578063c4c22e981461044e578063e9833c2f14610456578063eda4e6d61461047c576101e5565b8063ba6943f6116100de578063ba6943f6146103f3578063bbc19ab014610410578063be9a655514610418578063beb9716d14610420576101e5565b80638f32d59b146103665780639b089d551461036e578063a59ac6dd14610376578063ab89d2a7146103a8576101e5565b806350520b1f116101875780636209ec2d116101565780636209ec2d1461031c5780636a27246214610324578063715018a6146103565780638da5cb5b1461035e576101e5565b806350520b1f146102ae578063506ec095146102b65780635215fbf7146102d05780635d5bf178146102f6576101e5565b806322366844116101c3578063223668441461025c57806322f3e2d414610278578063232a3060146102805780632c159a1a146102a6576101e5565b8063086cfca8146101ea5780630cd865ec146102125780631f21f9af14610238575b600080fd5b6102106004803603602081101561020057600080fd5b50356001600160a01b03166104e0565b005b6102106004803603602081101561022857600080fd5b50356001600160a01b031661059b565b61024061073f565b604080516001600160a01b039092168252519081900360200190f35b61026461074e565b604080519115158252519081900360200190f35b61026461075e565b6102106004803603602081101561029657600080fd5b50356001600160a01b0316610767565b6102406107d6565b6102406107e5565b6102be6107f4565b60408051918252519081900360200190f35b610210600480360360208110156102e657600080fd5b50356001600160a01b03166107fa565b6102106004803603602081101561030c57600080fd5b50356001600160a01b03166108a9565b610240610992565b6102be6004803603606081101561033a57600080fd5b506001600160a01b0381351690602081013590604001356109a1565b610210610db5565b610240610e10565b610264610e1f565b610240610e30565b6102be6004803603606081101561038c57600080fd5b506001600160a01b038135169060208101359060400135610e3f565b6103da600480360360608110156103be57600080fd5b506001600160a01b038135169060208101359060400135611272565b6040805192835260208301919091528051918290030190f35b6102106004803603602081101561040957600080fd5b50356117a4565b6102be6117f6565b6102106117fc565b610264611ada565b6102646004803603602081101561043e57600080fd5b50356001600160a01b0316611afa565b6102be611be7565b6102be6004803603602081101561046c57600080fd5b50356001600160a01b0316611bed565b6102be611c70565b610210611c76565b610210600480360360208110156104a257600080fd5b50356001600160a01b031661203b565b610240612055565b610210600480360360208110156104d057600080fd5b50356001600160a01b0316612064565b6104e8610e1f565b6104f157600080fd5b600180546001600160a01b0319166001600160a01b03838116919091179182905560408051638da5cb5b60e01b815290519290911691638da5cb5b91600480820192602092909190829003018186803b15801561054d57600080fd5b505afa158015610561573d6000803e3d6000fd5b505050506040513d602081101561057757600080fd5b5051600280546001600160a01b0319166001600160a01b0390921691909117905550565b6001546001600160a01b031633146105e8576040805162461bcd60e51b8152602060048201819052602482015260008051602061272a833981519152604482015290519081900360640190fd5b600654604080516370a0823160e01b815230600482015290516001600160a01b038085169363a9059cbb936101009091049091169184916370a08231916024808301926020929190829003018186803b15801561064457600080fd5b505afa158015610658573d6000803e3d6000fd5b505050506040513d602081101561066e57600080fd5b5051604080516001600160e01b031960e086901b1681526001600160a01b03909316600484015260248301919091525160448083019260209291908290030181600087803b1580156106bf57600080fd5b505af11580156106d3573d6000803e3d6000fd5b505050506040513d60208110156106e957600080fd5b505161073c576040805162461bcd60e51b815260206004820152601760248201527f7265636f766572207472616e73666572206661696c6564000000000000000000604482015290519081900360640190fd5b50565b6009546001600160a01b031681565b600061075930611afa565b905090565b60065460ff1681565b6001546001600160a01b031633146107b4576040805162461bcd60e51b8152602060048201819052602482015260008051602061272a833981519152604482015290519081900360640190fd5b600a80546001600160a01b0319166001600160a01b0392909216919091179055565b6003546001600160a01b031681565b600d546001600160a01b031681565b60055481565b6001546001600160a01b03163314610847576040805162461bcd60e51b8152602060048201819052602482015260008051602061272a833981519152604482015290519081900360640190fd5b600d80546001600160a01b038381166001600160a01b03198316811790935560408051919092168082526020820193909352815133927f9098c60aaa618391748d72bb3c1709ccfbeabb3d94e02c818bf11d7d87b64d15928290030190a25050565b6108b1610e1f565b6108ba57600080fd5b806001600160a01b031663223668446040518163ffffffff1660e01b815260040160206040518083038186803b1580156108f357600080fd5b505afa158015610907573d6000803e3d6000fd5b505050506040513d602081101561091d57600080fd5b5051610970576040805162461bcd60e51b815260206004820152601a60248201527f4964656e74697479206973206e6f742072656769737465726564000000000000604482015290519081900360640190fd5b600380546001600160a01b0319166001600160a01b0392909216919091179055565b600a546001600160a01b031681565b60065460009060ff166109eb576040805162461bcd60e51b815260206004820152600d60248201526c6973206e6f742061637469766560981b604482015290519081900360640190fd5b60085484906001600160a01b03808316911614610a48576040805162461bcd60e51b815260206004820152601660248201527513db9b1e4818d11052481a5cc81cdd5c1c1bdc9d195960521b604482015290519081900360640190fd5b600660019054906101000a90046001600160a01b03166001600160a01b031663e1758bd86040518163ffffffff1660e01b815260040160206040518083038186803b158015610a9657600080fd5b505afa158015610aaa573d6000803e3d6000fd5b505050506040513d6020811015610ac057600080fd5b50516040805163079cc67960e41b81523360048201526024810187905290516001600160a01b03909216916379cc67909160448082019260009290919082900301818387803b158015610b1257600080fd5b505af1158015610b26573d6000803e3d6000fd5b5050600d546009546040805163167d4a7f60e11b81526001600160a01b0392831660048201523060248201523360448201528a83166064820152608481018a9052905160009550919092169250632cfa94fe9160a480820192602092909190829003018186803b158015610b9957600080fd5b505afa158015610bad573d6000803e3d6000fd5b505050506040513d6020811015610bc357600080fd5b50516009546040805163058c243360e11b81526001600160a01b038a81166004830152602482018a90526044820185905291519394506000939190921691630b18486691606480830192602092919082900301818787803b158015610c2757600080fd5b505af1158015610c3b573d6000803e3d6000fd5b505050506040513d6020811015610c5157600080fd5b5051905084811015610c945760405162461bcd60e51b81526004018080602001828103825260288152602001806126e06028913960400191505060405180910390fd5b6040805163a9059cbb60e01b81523360048201526024810183905290516001600160a01b0389169163a9059cbb9160448083019260209291908290030181600087803b158015610ce357600080fd5b505af1158015610cf7573d6000803e3d6000fd5b505050506040513d6020811015610d0d57600080fd5b50511515600114610d57576040805162461bcd60e51b815260206004820152600f60248201526e151c985b9cd9995c8819985a5b1959608a1b604482015290519081900360640190fd5b60408051878152602081018490528082018790526060810183905290516001600160a01b0389169133917fe5dc7b09acc7972566f52bd93340cbe3fa08404d98dff6d9ff26f9ce65cb3e6f9181900360800190a39695505050505050565b610dbd610e1f565b610dc657600080fd5b600080546040516001600160a01b03909116907f8be0079c531659141344cd1fd0a4f28419497f9722a3daafe3b4186f6b6457e0908390a3600080546001600160a01b0319169055565b6000546001600160a01b031690565b6000546001600160a01b0316331490565b6008546001600160a01b031681565b60065460009060ff16610e89576040805162461bcd60e51b815260206004820152600d60248201526c6973206e6f742061637469766560981b604482015290519081900360640190fd5b60085484906001600160a01b03808316911614610ee6576040805162461bcd60e51b815260206004820152601660248201527513db9b1e4818d11052481a5cc81cdd5c1c1bdc9d195960521b604482015290519081900360640190fd5b60408051636eb1769f60e11b8152336004820152306024820152905185916001600160a01b0388169163dd62ed3e91604480820192602092909190829003018186803b158015610f3557600080fd5b505afa158015610f49573d6000803e3d6000fd5b505050506040513d6020811015610f5f57600080fd5b50511015610f9e5760405162461bcd60e51b815260040180806020018281038252602781526020018061274a6027913960400191505060405180910390fd5b604080516323b872dd60e01b81523360048201523060248201526044810186905290516001600160a01b038716916323b872dd9160648083019260209291908290030181600087803b158015610ff357600080fd5b505af1158015611007573d6000803e3d6000fd5b505050506040513d602081101561101d57600080fd5b5051151560011461105f5760405162461bcd60e51b81526004018080602001828103825260398152602001806126826039913960400191505060405180910390fd5b6009546040805163cce7ec1360e01b81526001600160a01b038881166004830152602482018890529151600093929092169163cce7ec139160448082019260209290919082900301818787803b1580156110b857600080fd5b505af11580156110cc573d6000803e3d6000fd5b505050506040513d60208110156110e257600080fd5b50519050838110156111255760405162461bcd60e51b815260040180806020018281038252602581526020018061265d6025913960400191505060405180910390fd5b600660019054906101000a90046001600160a01b03166001600160a01b031663e1758bd86040518163ffffffff1660e01b815260040160206040518083038186803b15801561117357600080fd5b505afa158015611187573d6000803e3d6000fd5b505050506040513d602081101561119d57600080fd5b5051604080516340c10f1960e01b81523360048201526024810184905290516001600160a01b03909216916340c10f19916044808201926020929091908290030181600087803b1580156111f057600080fd5b505af1158015611204573d6000803e3d6000fd5b505050506040513d602081101561121a57600080fd5b5050604080518681526020810186905280820183905290516001600160a01b0388169133917f0a9521815fb3c5bc7dd6f4c9f89dc270322e46b945b104c18981f81c3f2cd1aa9181900360600190a395945050505050565b600654600090819060ff166112be576040805162461bcd60e51b815260206004820152600d60248201526c6973206e6f742061637469766560981b604482015290519081900360640190fd5b60085485906001600160a01b0380831691161461131b576040805162461bcd60e51b815260206004820152601660248201527513db9b1e4818d11052481a5cc81cdd5c1c1bdc9d195960521b604482015290519081900360640190fd5b600a546001600160a01b031633146113645760405162461bcd60e51b81526004018080602001828103825260258152602001806126bb6025913960400191505060405180910390fd5b61136c611ada565b6113a75760405162461bcd60e51b81526004018080602001828103825260228152602001806127086022913960400191505060405180910390fd5b60006113b287611bed565b6009546040805163074920d360e41b81526001600160a01b038b81166004830152602482018b9052915193945060009391909216916374920d3091604480830192602092919082900301818787803b15801561140d57600080fd5b505af1158015611421573d6000803e3d6000fd5b505050506040513d602081101561143757600080fd5b505160065460408051631c2eb17b60e31b815290519293506000926101009092046001600160a01b03169163e1758bd891600480820192602092909190829003018186803b15801561148857600080fd5b505afa15801561149c573d6000803e3d6000fd5b505050506040513d60208110156114b257600080fd5b50516040805163313ce56760e01b81529051919250600091611539916001600160a01b0385169163313ce56791600480820192602092909190829003018186803b1580156114ff57600080fd5b505afa158015611513573d6000803e3d6000fd5b505050506040513d602081101561152957600080fd5b5051601b9063ffffffff6120d316565b9050600061155a82600a0a61154e8b886120ed565b9063ffffffff61212116565b6009546040805163e72a083360e01b81526001600160a01b038f811660048301529151939450600093919092169163e72a083391602480830192602092919082900301818787803b1580156115ae57600080fd5b505af11580156115c2573d6000803e3d6000fd5b505050506040513d60208110156115d857600080fd5b5051905060006115ee868463ffffffff6120d316565b9050611600818363ffffffff61214316565b90506000611614828563ffffffff61214316565b9050600660019054906101000a90046001600160a01b03166001600160a01b031663e1758bd86040518163ffffffff1660e01b815260040160206040518083038186803b15801561166457600080fd5b505afa158015611678573d6000803e3d6000fd5b505050506040513d602081101561168e57600080fd5b5051600a54604080516340c10f1960e01b81526001600160a01b03928316600482015260248101859052905191909216916340c10f199160448083019260209291908290030181600087803b1580156116e657600080fd5b505af11580156116fa573d6000803e3d6000fd5b505050506040513d602081101561171057600080fd5b5050600b5461172690439063ffffffff61212116565b600c819055508d6001600160a01b0316600c547ffbde528219eb8e3c62f749f4ae45df202cfbaf23559ca5944b59756ffcb9b7b88f8a878988604051808681526020018581526020018481526020018381526020018281526020019550505050505060405180910390a350919c919b50909950505050505050505050565b6001546001600160a01b031633146117f1576040805162461bcd60e51b8152602060048201819052602482015260008051602061272a833981519152604482015290519081900360640190fd5b600b55565b600c5481565b61180461074e565b611850576040805162461bcd60e51b815260206004820152601860248201527714d8da195b59481a5cc81b9bdd081c9959da5cdd195c995960421b604482015290519081900360640190fd5b61185861215c565b60025460065460408051631c2eb17b60e31b815290516001600160a01b039384169363d1b7089a936101009004169163e1758bd8916004808301926020929190829003018186803b1580156118ac57600080fd5b505afa1580156118c0573d6000803e3d6000fd5b505050506040513d60208110156118d657600080fd5b50516040805130602480830191909152825180830382018152604492830184526020810180516001600160e01b0316634c1d96ab60e11b178152600654945160e088901b6001600160e01b03191681526001600160a01b0380881660048301908152610100909704169481018590526000606482018190526080948201948552835160848301528351939690949093909260a49092019190808383885b8381101561198b578181015183820152602001611973565b50505050905090810190601f1680156119b85780820380516001836020036101000a031916815260200191505b5095505050505050600060405180830381600087803b1580156119da57600080fd5b505af11580156119ee573d6000803e3d6000fd5b505050506040513d6000823e601f3d908101601f191682016040908152811015611a1757600080fd5b815160208301805160405192949293830192919084640100000000821115611a3e57600080fd5b908301906020820185811115611a5357600080fd5b8251640100000000811182820188101715611a6d57600080fd5b82525081516020918201929091019080838360005b83811015611a9a578181015183820152602001611a82565b50505050905090810190601f168015611ac75780820380516001836020036101000a031916815260200191505b506040525050505050611ad86123c4565b565b6000600c54611af4600b544361212190919063ffffffff16565b11905090565b6001546000906001600160a01b0316611b4e576040805162461bcd60e51b8152602060048201526011602482015270105d985d185c881a5cc81b9bdd081cd95d607a1b604482015290519081900360640190fd5b60025460015460408051639be2faed60e01b81526001600160a01b038681166004830152928316602482015290519190921691639be2faed916044808301926020929190829003018186803b158015611ba657600080fd5b505afa158015611bba573d6000803e3d6000fd5b505050506040513d6020811015611bd057600080fd5b5051611bde57506000611be2565b5060015b919050565b600b5481565b6009546040805163e9833c2f60e01b81526001600160a01b0384811660048301529151600093929092169163e9833c2f91602480820192602092909190829003018186803b158015611c3e57600080fd5b505afa158015611c52573d6000803e3d6000fd5b505050506040513d6020811015611c6857600080fd5b505192915050565b60045481565b6001546001600160a01b03163314611cc3576040805162461bcd60e51b8152602060048201819052602482015260008051602061272a833981519152604482015290519081900360640190fd5b600854604080516370a0823160e01b815230600482015290516000926001600160a01b0316916370a08231916024808301926020929190829003018186803b158015611d0e57600080fd5b505afa158015611d22573d6000803e3d6000fd5b505050506040513d6020811015611d3857600080fd5b505190508015611e14576008546006546040805163a9059cbb60e01b81526101009092046001600160a01b03908116600484015260248301859052905192169163a9059cbb916044808201926020929091908290030181600087803b158015611da057600080fd5b505af1158015611db4573d6000803e3d6000fd5b505050506040513d6020811015611dca57600080fd5b5051611e14576040805162461bcd60e51b815260206004820152601460248201527318d9185a481d1c985b9cd9995c8819985a5b195960621b604482015290519081900360640190fd5b600854604080516370a0823160e01b815230600482015290516001600160a01b03909216916370a0823191602480820192602092909190829003018186803b158015611e5f57600080fd5b505afa158015611e73573d6000803e3d6000fd5b505050506040513d6020811015611e8957600080fd5b505115611edd576040805162461bcd60e51b815260206004820152601960248201527f46756e6473207472616e7366657220686173206661696c656400000000000000604482015290519081900360640190fd5b6000600660019054906101000a90046001600160a01b03166001600160a01b031663e1758bd86040518163ffffffff1660e01b815260040160206040518083038186803b158015611f2d57600080fd5b505afa158015611f41573d6000803e3d6000fd5b505050506040513d6020811015611f5757600080fd5b50516009546006546040805163f2fde38b60e01b81526001600160a01b0361010090930483166004820152905193945091169163f2fde38b9160248082019260009290919082900301818387803b158015611fb157600080fd5b505af1158015611fc5573d6000803e3d6000fd5b50505050806001600160a01b031663986502756040518163ffffffff1660e01b8152600401600060405180830381600087803b15801561200457600080fd5b505af1158015612018573d6000803e3d6000fd5b5050600654612037925061010090046001600160a01b031690506124aa565b5050565b612043610e1f565b61204c57600080fd5b61073c8161253c565b6007546001600160a01b031681565b6001546001600160a01b031633146120b1576040805162461bcd60e51b8152602060048201819052602482015260008051602061272a833981519152604482015290519081900360640190fd5b600980546001600160a01b0319166001600160a01b0392909216919091179055565b6000828211156120e257600080fd5b508082035b92915050565b600081612112612109856b033b2e3c9fd0803ce80000006125aa565b6002850461260d565b8161211957fe5b049392505050565b600080821161212f57600080fd5b600082848161213a57fe5b04949350505050565b60008282018381101561215557600080fd5b9392505050565b61216461074e565b6121b0576040805162461bcd60e51b815260206004820152601860248201527714d8da195b59481a5cc81b9bdd081c9959da5cdd195c995960421b604482015290519081900360640190fd5b6002546003546040805130602480830191909152825180830382018152604492830184526020810180516001600160e01b0316635f539d6960e01b17815260015494516368db844d60e11b81526001600160a01b03968716600482018181529688169582018690526000606483018190526080958301958652845160848401528451989099169863d1b7089a989197949695909493909260a40191808383885b83811015612268578181015183820152602001612250565b50505050905090810190601f1680156122955780820380516001836020036101000a031916815260200191505b5095505050505050600060405180830381600087803b1580156122b757600080fd5b505af11580156122cb573d6000803e3d6000fd5b505050506040513d6000823e601f3d908101601f1916820160409081528110156122f457600080fd5b81516020830180516040519294929383019291908464010000000082111561231b57600080fd5b90830190602082018581111561233057600080fd5b825164010000000081118282018810171561234a57600080fd5b82525081516020918201929091019080838360005b8381101561237757818101518382015260200161235f565b50505050905090810190601f1680156123a45780820380516001836020036101000a031916815260200191505b506040525050600154611ad893506001600160a01b0316915061203b9050565b60045442101580156123d7575060055442105b612418576040805162461bcd60e51b815260206004820152600d60248201526c1b9bdd081a5b881c195c9a5bd9609a1b604482015290519081900360640190fd5b60065460ff1615612465576040805162461bcd60e51b815260206004820152601260248201527163616e6e6f7420737461727420747769636560701b604482015290519081900360640190fd5b6006805460ff1916600117905560408051428152905133917f727dd98701807c5fdf715b9f1fd7d87461a558e2ab3e05935add76e42e330fa3919081900360200190a2565b60065460ff166124f1576040805162461bcd60e51b815260206004820152600d60248201526c6973206e6f742061637469766560981b604482015290519081900360640190fd5b6006805460ff1916905560408051428152905133917ef689ee9beb942c1c9c0d6642687ace05a9000d5f2979d344163c57829fa779919081900360200190a2806001600160a01b0316ff5b6001600160a01b03811661254f57600080fd5b600080546040516001600160a01b03808516939216917f8be0079c531659141344cd1fd0a4f28419497f9722a3daafe3b4186f6b6457e091a3600080546001600160a01b0319166001600160a01b0392909216919091179055565b60008115806125c5575050808202828282816125c257fe5b04145b6120e7576040805162461bcd60e51b815260206004820152601460248201527364732d6d6174682d6d756c2d6f766572666c6f7760601b604482015290519081900360640190fd5b808201828110156120e7576040805162461bcd60e51b815260206004820152601460248201527364732d6d6174682d6164642d6f766572666c6f7760601b604482015290519081900360640190fdfe47442072657475726e206d7573742062652061626f766520746865206d696e52657475726e7472616e7366657246726f6d206661696c65642c206d616b65207375726520796f7520617070726f7665642063444149207472616e736665724f6e6c792046756e644d616e616765722063616e2063616c6c2074686973206d6574686f64546f6b656e2072657475726e206d7573742062652061626f766520746865206d696e52657475726e4e65656420746f207761697420666f7220746865206e65787420696e74657276616c6f6e6c79204176617461722063616e2063616c6c2074686973206d6574686f64596f75206e65656420746f20617070726f76652063444149207472616e73666572206669727374a265627a7a72315820c3ee664a127aaedcad8190ee0434ca284d20a7b3295c5bbacf9fea358ff8047564736f6c6343000510003273746172742063616e6e6f74206265206166746572206e6f7220657175616c20746f20656e64",
  "source": "pragma solidity >0.5.4;\n\nimport \"openzeppelin-solidity/contracts/math/SafeMath.sol\";\nimport \"openzeppelin-solidity/contracts/token/ERC20/ERC20.sol\";\nimport \"openzeppelin-solidity/contracts/token/ERC20/ERC20Mintable.sol\";\nimport \"openzeppelin-solidity/contracts/token/ERC20/ERC20Burnable.sol\";\nimport \"@daostack/arc/contracts/controller/Avatar.sol\";\nimport \"../../contracts/dao/schemes/FeelessScheme.sol\";\nimport \"../../contracts/dao/schemes/ActivePeriod.sol\";\nimport \"../../contracts/DSMath.sol\";\nimport \"../../contracts/token/GoodDollar.sol\";\nimport \"./GoodMarketMaker.sol\";\n\ninterface cERC20 {\n    function mint(uint256 mintAmount) external returns (uint256);\n\n    function redeemUnderlying(uint256 mintAmount) external returns (uint256);\n\n    function exchangeRateCurrent() external returns (uint256);\n\n    function exchangeRateStored() external view returns (uint256);\n\n    function balanceOf(address addr) external view returns (uint256);\n\n    function transfer(address to, uint256 amount) external returns (bool);\n}\n\ninterface ContributionCalc {\n    function calculateContribution(\n        GoodMarketMaker _marketMaker,\n        GoodReserveCDai _reserve,\n        address _contributer,\n        ERC20 _token,\n        uint256 _gdAmount\n    ) external view returns (uint256);\n}\n\n/**\n@title Reserve based on cDAI and dynamic reserve ratio market maker\n*/\ncontract GoodReserveCDai is DSMath, FeelessScheme, ActivePeriod {\n    using SafeMath for uint256;\n\n    // DAI token address\n    ERC20 public dai;\n\n    // cDAI token address\n    cERC20 public cDai;\n\n    // The address of the market maker contract\n    // which makes the calculations and holds\n    // the token and accounts info\n    GoodMarketMaker public marketMaker;\n\n    // The fund manager receives the minted tokens\n    // when executing `mintInterestAndUBI`\n    address public fundManager;\n\n    // The block interval defines the number of\n    // blocks that shall be passed before the\n    // next execution of `mintInterestAndUBI`\n    uint256 public blockInterval;\n\n    // The last block number which\n    // `mintInterestAndUBI` has been executed in\n    uint256 public lastMinted;\n\n    // The contribution contract is responsible\n    // for calculates the contribution amount\n    // when selling GD\n    ContributionCalc public contribution;\n\n    modifier onlyFundManager {\n        require(msg.sender == fundManager, \"Only FundManager can call this method\");\n        _;\n    }\n\n    modifier onlyCDai(ERC20 token) {\n        require(address(token) == address(cDai), \"Only cDAI is supported\");\n        _;\n    }\n\n    // Emits when GD tokens are purchased\n    event TokenPurchased(\n        // The initiate of the action\n        address indexed caller,\n        // The convertible token address\n        // which the GD tokens were\n        // purchased with\n        address indexed reserveToken,\n        // Reserve tokens amount\n        uint256 reserveAmount,\n        // Minimal GD return that was\n        // permitted by the caller\n        uint256 minReturn,\n        // Actual return after the\n        // conversion\n        uint256 actualReturn\n    );\n\n    // Emits when GD tokens are sold\n    event TokenSold(\n        // The initiate of the action\n        address indexed caller,\n        // The convertible token address\n        // which the GD tokens were\n        // sold to\n        address indexed reserveToken,\n        // GD tokens amount\n        uint256 gdAmount,\n        // The amount of GD tokens that\n        // was contributed during the\n        // conversion\n        uint256 contributionAmount,\n        // Minimal reserve tokens return\n        // that was permitted by the caller\n        uint256 minReturn,\n        // Actual return after the\n        // conversion\n        uint256 actualReturn\n    );\n\n    // Emits when the contribution contract\n    // address is updated\n    event ContributionAddressUpdated(\n        // The initiate of the action\n        address indexed caller,\n        // Previous contribution\n        // contract address\n        address prevAddress,\n        // The updated contribution\n        // contract address\n        address newAddress\n    );\n\n    // Emits when new GD tokens minted\n    event UBIMinted(\n        //epoch of UBI\n        uint256 indexed day,\n        //the token paid as interest\n        address indexed interestToken,\n        //wei amount of interest paid in interestToken\n        uint256 interestReceived,\n        // Amount of GD tokens that was\n        // added to the supply as a result\n        // of `mintInterest`\n        uint256 gdInterestMinted,\n        // Amount of GD tokens that was\n        // added to the supply as a result\n        // of `mintExpansion`\n        uint256 gdExpansionMinted,\n        // Amount of GD tokens that was\n        // minted to the `interestCollector`\n        uint256 gdInterestTransferred,\n        // Amount of GD tokens that was\n        // minted to the `ubiCollector`\n        uint256 gdUbiTransferred\n    );\n\n    /**\n     * @dev Constructor\n     * @param _dai The address of DAI\n     * @param _cDai The address of cDAI\n     * @param _fundManager The address of the fund manager contract\n     * @param _avatar The avatar of the DAO\n     * @param _identity The identity contract\n     * @param _marketMaker The address of the market maker contract\n     * @param _contribution The address of the contribution contract\n     * @param _blockInterval How many blocks should be passed before the next execution of `mintInterestAndUBI`\n     */\n    constructor(\n        ERC20 _dai,\n        cERC20 _cDai,\n        address _fundManager,\n        Avatar _avatar,\n        Identity _identity,\n        address _marketMaker,\n        ContributionCalc _contribution,\n        uint256 _blockInterval\n    ) public FeelessScheme(_identity, _avatar) ActivePeriod(now, now * 2, _avatar) {\n        dai = _dai;\n        cDai = _cDai;\n        fundManager = _fundManager;\n        marketMaker = GoodMarketMaker(_marketMaker);\n        blockInterval = _blockInterval;\n        lastMinted = block.number.div(blockInterval);\n        contribution = _contribution;\n    }\n\n    /**\n     * @dev Start function. Adds this contract to identity as a feeless scheme.\n     * Can only be called if scheme is registered\n     */\n    function start() public onlyRegistered {\n        addRights();\n\n        // Adds the reserve as a minter of the GD token\n        controller.genericCall(\n            address(avatar.nativeToken()),\n            abi.encodeWithSignature(\"addMinter(address)\", address(this)),\n            avatar,\n            0\n        );\n        super.start();\n    }\n\n    /**\n     * @dev Allows the DAO to change the market maker contract\n     * @param _marketMaker address of the new contract\n     */\n    function setMarketMaker(address _marketMaker) public onlyAvatar {\n        marketMaker = GoodMarketMaker(_marketMaker);\n    }\n\n    /**\n     * @dev Allows the DAO to change the fund manager contract\n     * @param _fundManager address of the new contract\n     */\n    function setFundManager(address _fundManager) public onlyAvatar {\n        fundManager = _fundManager;\n    }\n\n    /**\n     * @dev Allows the DAO to change the block interval\n     * @param _blockInterval the new value\n     */\n    function setBlockInterval(uint256 _blockInterval) public onlyAvatar {\n        blockInterval = _blockInterval;\n    }\n\n    /**\n     * @dev Allows the DAO to change the contribution formula contract\n     * @param _contribution address of the new contribution contract\n     */\n    function setContributionAddress(address _contribution) public onlyAvatar {\n        address prevAddress = address(contribution);\n        contribution = ContributionCalc(_contribution);\n        emit ContributionAddressUpdated(msg.sender, prevAddress, _contribution);\n    }\n\n    /**\n     * @dev Converts `buyWith` tokens to GD tokens and updates the bonding curve params.\n     * `buy` occurs only if the GD return is above the given minimum. It is possible\n     * to buy only with cDAI and when the contract is set to active. MUST call to\n     * `buyWith` `approve` prior this action to allow this contract to accomplish the\n     * conversion.\n     * @param _buyWith The tokens that should be converted to GD tokens\n     * @param _tokenAmount The amount of `buyWith` tokens that should be converted to GD tokens\n     * @param _minReturn The minimum allowed return in GD tokens\n     * @return (gdReturn) How much GD tokens were transferred\n     */\n    function buy(\n        ERC20 _buyWith,\n        uint256 _tokenAmount,\n        uint256 _minReturn\n    ) public requireActive onlyCDai(_buyWith) returns (uint256) {\n        require(\n            _buyWith.allowance(msg.sender, address(this)) >= _tokenAmount,\n            \"You need to approve cDAI transfer first\"\n        );\n        require(\n            _buyWith.transferFrom(msg.sender, address(this), _tokenAmount) == true,\n            \"transferFrom failed, make sure you approved cDAI transfer\"\n        );\n        uint256 gdReturn = marketMaker.buy(_buyWith, _tokenAmount);\n        require(gdReturn >= _minReturn, \"GD return must be above the minReturn\");\n        ERC20Mintable(address(avatar.nativeToken())).mint(msg.sender, gdReturn);\n        emit TokenPurchased(\n            msg.sender,\n            address(_buyWith),\n            _tokenAmount,\n            _minReturn,\n            gdReturn\n        );\n        return gdReturn;\n    }\n\n    /**\n     * @dev Converts GD tokens to `sellTo` tokens and update the bonding curve params.\n     * `sell` occurs only if the token return is above the given minimum. Notice that\n     * there is a contribution amount from the given GD that remains in the reserve.\n     * It is only possible to sell to cDAI and only when the contract is set to\n     * active. MUST be called to G$ `approve` prior to this action to allow this\n     * contract to accomplish the conversion.\n     * @param _sellTo The tokens that will be received after the conversion\n     * @param _gdAmount The amount of GD tokens that should be converted to `_sellTo` tokens\n     * @param _minReturn The minimum allowed `sellTo` tokens return\n     * @return (tokenReturn) How much `sellTo` tokens were transferred\n     */\n    function sell(\n        ERC20 _sellTo,\n        uint256 _gdAmount,\n        uint256 _minReturn\n    ) public requireActive onlyCDai(_sellTo) returns (uint256) {\n        ERC20Burnable(address(avatar.nativeToken())).burnFrom(msg.sender, _gdAmount);\n        uint256 contributionAmount = contribution.calculateContribution(\n            marketMaker,\n            this,\n            msg.sender,\n            _sellTo,\n            _gdAmount\n        );\n        uint256 tokenReturn = marketMaker.sellWithContribution(\n            _sellTo,\n            _gdAmount,\n            contributionAmount\n        );\n        require(tokenReturn >= _minReturn, \"Token return must be above the minReturn\");\n        require(_sellTo.transfer(msg.sender, tokenReturn) == true, \"Transfer failed\");\n        emit TokenSold(\n            msg.sender,\n            address(_sellTo),\n            _gdAmount,\n            contributionAmount,\n            _minReturn,\n            tokenReturn\n        );\n        return tokenReturn;\n    }\n\n    /**\n     * @dev Current price of GD in `token`. currently only cDAI is supported.\n     * @param _token The desired reserve token to have\n     * @return price of GD\n     */\n    function currentPrice(ERC20 _token) public view returns (uint256) {\n        return marketMaker.currentPrice(_token);\n    }\n\n    /**\n     * @dev Checks if enough blocks have passed so it would be possible to\n     * execute `mintInterestAndUBI` according to the length of `blockInterval`\n     * @return (bool) True if enough blocks have passed\n     */\n    function canMint() public view returns (bool) {\n        return block.number.div(blockInterval) > lastMinted;\n    }\n\n    /**\n     * @dev Anyone can call this to trigger calculations.\n     * Reserve sends UBI to Avatar DAO and returns interest to FundManager.\n     * @param _interestToken The token that was transfered to the reserve\n     * @param _transfered How much was transfered to the reserve for UBI in `_interestToken`\n     * @param _interest Out of total transfered how much is the interest (in `_interestToken`)\n     * that needs to be paid back (some interest might be donated)\n     * @return (gdInterest, gdUBI) How much GD interest was minted and how much GD UBI was minted\n     */\n    function mintInterestAndUBI(\n        ERC20 _interestToken,\n        uint256 _transfered,\n        uint256 _interest\n    )\n        public\n        requireActive\n        onlyCDai(_interestToken)\n        onlyFundManager\n        returns (uint256, uint256)\n    {\n        require(canMint(), \"Need to wait for the next interval\");\n        uint256 price = currentPrice(_interestToken);\n        uint256 gdInterestToMint = marketMaker.mintInterest(_interestToken, _transfered);\n        GoodDollar gooddollar = GoodDollar(address(avatar.nativeToken()));\n        uint256 precisionLoss = uint256(27).sub(uint256(gooddollar.decimals()));\n        uint256 gdInterest = rdiv(_interest, price).div(10**precisionLoss);\n        uint256 gdExpansionToMint = marketMaker.mintExpansion(_interestToken);\n        uint256 gdUBI = gdInterestToMint.sub(gdInterest);\n        gdUBI = gdUBI.add(gdExpansionToMint);\n        uint256 toMint = gdUBI.add(gdInterest);\n        ERC20Mintable(address(avatar.nativeToken())).mint(fundManager, toMint);\n        lastMinted = block.number.div(blockInterval);\n        emit UBIMinted(\n            lastMinted,\n            address(_interestToken),\n            _transfered,\n            gdInterestToMint,\n            gdExpansionToMint,\n            gdInterest,\n            gdUBI\n        );\n        return (gdInterest, gdUBI);\n    }\n\n    /**\n     * @dev Making the contract inactive after it has transferred the cDAI funds to `_avatar`\n     * and has transferred the market maker ownership to `_avatar`. Inactive means that\n     * buy / sell / mintInterestAndUBI actions will no longer be active. Only the Avatar can\n     * executes this method\n     */\n    function end() public onlyAvatar {\n        // remaining cDAI tokens in the current reserve contract\n        uint256 remainingReserve = cDai.balanceOf(address(this));\n        if (remainingReserve > 0) {\n            require(\n                cDai.transfer(address(avatar), remainingReserve),\n                \"cdai transfer failed\"\n            );\n        }\n        require(cDai.balanceOf(address(this)) == 0, \"Funds transfer has failed\");\n        GoodDollar gooddollar = GoodDollar(address(avatar.nativeToken()));\n        marketMaker.transferOwnership(address(avatar));\n        gooddollar.renounceMinter();\n        super.internalEnd(avatar);\n    }\n\n    /**\n     * @dev method to recover any stuck erc20 tokens (ie compound COMP)\n     * @param _token the ERC20 token to recover\n     */\n    function recover(ERC20 _token) public onlyAvatar {\n        require(\n            _token.transfer(address(avatar), _token.balanceOf(address(this))),\n            \"recover transfer failed\"\n        );\n    }\n}\n",
  "sourcePath": "/Users/hadar/workspace/GoodDollar/GoodBootstrap/packages/contracts/stakingModel/contracts/GoodReserveCDai.sol",
  "compiler": {
    "name": "solc",
    "version": "0.5.16+commit.9c3226ce.Emscripten.clang"
  },
  "schemaVersion": "3.2.2",
  "updatedAt": "2021-02-02T21:24:20.992Z",
  "devdoc": {
    "methods": {
      "buy(address,uint256,uint256)": {
        "details": "Converts `buyWith` tokens to GD tokens and updates the bonding curve params. `buy` occurs only if the GD return is above the given minimum. It is possible to buy only with cDAI and when the contract is set to active. MUST call to `buyWith` `approve` prior this action to allow this contract to accomplish the conversion.",
        "params": {
          "_buyWith": "The tokens that should be converted to GD tokens",
          "_minReturn": "The minimum allowed return in GD tokens",
          "_tokenAmount": "The amount of `buyWith` tokens that should be converted to GD tokens"
        },
        "return": "(gdReturn) How much GD tokens were transferred"
      },
      "canMint()": {
        "details": "Checks if enough blocks have passed so it would be possible to execute `mintInterestAndUBI` according to the length of `blockInterval`",
        "return": "(bool) True if enough blocks have passed"
      },
      "constructor": {
        "details": "Constructor",
        "params": {
          "_avatar": "The avatar of the DAO",
          "_blockInterval": "How many blocks should be passed before the next execution of `mintInterestAndUBI`",
          "_cDai": "The address of cDAI",
          "_contribution": "The address of the contribution contract",
          "_dai": "The address of DAI",
          "_fundManager": "The address of the fund manager contract",
          "_identity": "The identity contract",
          "_marketMaker": "The address of the market maker contract"
        }
      },
      "currentPrice(address)": {
        "details": "Current price of GD in `token`. currently only cDAI is supported.",
        "params": {
          "_token": "The desired reserve token to have"
        },
        "return": "price of GD"
      },
      "end()": {
        "details": "Making the contract inactive after it has transferred the cDAI funds to `_avatar` and has transferred the market maker ownership to `_avatar`. Inactive means that buy / sell / mintInterestAndUBI actions will no longer be active. Only the Avatar can executes this method"
      },
      "isOwner()": {
        "return": "true if `msg.sender` is the owner of the contract."
      },
      "isRegistered()": {
        "details": "function to see if an avatar has been set and if this scheme is registered",
        "return": "true if scheme is registered"
      },
      "isRegistered(address)": {
        "details": "function to see if an avatar has been set and if this scheme is registered",
        "return": "true if scheme is registered"
      },
      "mintInterestAndUBI(address,uint256,uint256)": {
        "details": "Anyone can call this to trigger calculations. Reserve sends UBI to Avatar DAO and returns interest to FundManager.",
        "params": {
          "_interest": "Out of total transfered how much is the interest (in `_interestToken`) that needs to be paid back (some interest might be donated)",
          "_interestToken": "The token that was transfered to the reserve",
          "_transfered": "How much was transfered to the reserve for UBI in `_interestToken`"
        },
        "return": "(gdInterest, gdUBI) How much GD interest was minted and how much GD UBI was minted"
      },
      "owner()": {
        "return": "the address of the owner."
      },
      "recover(address)": {
        "details": "method to recover any stuck erc20 tokens (ie compound COMP)",
        "params": {
          "_token": "the ERC20 token to recover"
        }
      },
      "renounceOwnership()": {
        "details": "Allows the current owner to relinquish control of the contract."
      },
      "sell(address,uint256,uint256)": {
        "details": "Converts GD tokens to `sellTo` tokens and update the bonding curve params. `sell` occurs only if the token return is above the given minimum. Notice that there is a contribution amount from the given GD that remains in the reserve. It is only possible to sell to cDAI and only when the contract is set to active. MUST be called to G$ `approve` prior to this action to allow this contract to accomplish the conversion.",
        "params": {
          "_gdAmount": "The amount of GD tokens that should be converted to `_sellTo` tokens",
          "_minReturn": "The minimum allowed `sellTo` tokens return",
          "_sellTo": "The tokens that will be received after the conversion"
        },
        "return": "(tokenReturn) How much `sellTo` tokens were transferred"
      },
      "setAvatar(address)": {
        "details": "Function to set a new avatar and controller for scheme can only be done by owner of scheme"
      },
      "setBlockInterval(uint256)": {
        "details": "Allows the DAO to change the block interval",
        "params": {
          "_blockInterval": "the new value"
        }
      },
      "setContributionAddress(address)": {
        "details": "Allows the DAO to change the contribution formula contract",
        "params": {
          "_contribution": "address of the new contribution contract"
        }
      },
      "setFundManager(address)": {
        "details": "Allows the DAO to change the fund manager contract",
        "params": {
          "_fundManager": "address of the new contract"
        }
      },
      "setMarketMaker(address)": {
        "details": "Allows the DAO to change the market maker contract",
        "params": {
          "_marketMaker": "address of the new contract"
        }
      },
      "start()": {
        "details": "Start function. Adds this contract to identity as a feeless scheme. Can only be called if scheme is registered"
      },
      "transferOwnership(address)": {
        "details": "Allows the current owner to transfer control of the contract to a newOwner.",
        "params": {
          "newOwner": "The address to transfer ownership to."
        }
      }
    },
    "title": "Reserve based on cDAI and dynamic reserve ratio market maker"
  },
  "userdoc": {
    "methods": {
      "renounceOwnership()": {
        "notice": "Renouncing to ownership will leave the contract without an owner. It will not be possible to call the functions with the `onlyOwner` modifier anymore."
      }
    }
  }
}