{
  "contractName": "GoodMarketMaker",
  "abi": [
    {
      "inputs": [
        {
          "internalType": "contract Avatar",
          "name": "_avatar",
          "type": "address"
        },
        {
          "internalType": "uint256",
          "name": "_nom",
          "type": "uint256"
        },
        {
          "internalType": "uint256",
          "name": "_denom",
          "type": "uint256"
        }
      ],
      "payable": false,
      "stateMutability": "nonpayable",
      "type": "constructor"
    },
    {
      "anonymous": false,
      "inputs": [
        {
          "indexed": true,
          "internalType": "address",
          "name": "caller",
          "type": "address"
        },
        {
          "indexed": true,
          "internalType": "address",
          "name": "reserveToken",
          "type": "address"
        },
        {
          "indexed": false,
          "internalType": "uint256",
          "name": "amount",
          "type": "uint256"
        },
        {
          "indexed": false,
          "internalType": "uint256",
          "name": "returnAmount",
          "type": "uint256"
        },
        {
          "indexed": false,
          "internalType": "uint256",
          "name": "totalSupply",
          "type": "uint256"
        },
        {
          "indexed": false,
          "internalType": "uint256",
          "name": "reserveBalance",
          "type": "uint256"
        }
      ],
      "name": "BalancesUpdated",
      "type": "event"
    },
    {
      "anonymous": false,
      "inputs": [
        {
          "indexed": true,
          "internalType": "address",
          "name": "caller",
          "type": "address"
        },
        {
          "indexed": true,
          "internalType": "address",
          "name": "reserveToken",
          "type": "address"
        },
        {
          "indexed": false,
          "internalType": "uint256",
          "name": "addInterest",
          "type": "uint256"
        },
        {
          "indexed": false,
          "internalType": "uint256",
          "name": "oldSupply",
          "type": "uint256"
        },
        {
          "indexed": false,
          "internalType": "uint256",
          "name": "mint",
          "type": "uint256"
        }
      ],
      "name": "InterestMinted",
      "type": "event"
    },
    {
      "anonymous": false,
      "inputs": [
        {
          "indexed": true,
          "internalType": "address",
          "name": "previousOwner",
          "type": "address"
        },
        {
          "indexed": true,
          "internalType": "address",
          "name": "newOwner",
          "type": "address"
        }
      ],
      "name": "OwnershipTransferred",
      "type": "event"
    },
    {
      "anonymous": false,
      "inputs": [
        {
          "indexed": true,
          "internalType": "address",
          "name": "caller",
          "type": "address"
        },
        {
          "indexed": false,
          "internalType": "uint256",
          "name": "nom",
          "type": "uint256"
        },
        {
          "indexed": false,
          "internalType": "uint256",
          "name": "denom",
          "type": "uint256"
        }
      ],
      "name": "ReserveRatioUpdated",
      "type": "event"
    },
    {
      "anonymous": false,
      "inputs": [
        {
          "indexed": true,
          "internalType": "address",
          "name": "caller",
          "type": "address"
        },
        {
          "indexed": true,
          "internalType": "address",
          "name": "reserveToken",
          "type": "address"
        },
        {
          "indexed": false,
          "internalType": "uint256",
          "name": "oldReserveRatio",
          "type": "uint256"
        },
        {
          "indexed": false,
          "internalType": "uint256",
          "name": "oldSupply",
          "type": "uint256"
        },
        {
          "indexed": false,
          "internalType": "uint256",
          "name": "mint",
          "type": "uint256"
        }
      ],
      "name": "UBIExpansionMinted",
      "type": "event"
    },
    {
      "constant": true,
      "inputs": [
        {
          "internalType": "uint256",
          "name": "_fromConnectorBalance",
          "type": "uint256"
        },
        {
          "internalType": "uint32",
          "name": "_fromConnectorWeight",
          "type": "uint32"
        },
        {
          "internalType": "uint256",
          "name": "_toConnectorBalance",
          "type": "uint256"
        },
        {
          "internalType": "uint32",
          "name": "_toConnectorWeight",
          "type": "uint32"
        },
        {
          "internalType": "uint256",
          "name": "_amount",
          "type": "uint256"
        }
      ],
      "name": "calculateCrossConnectorReturn",
      "outputs": [
        {
          "internalType": "uint256",
          "name": "",
          "type": "uint256"
        }
      ],
      "payable": false,
      "stateMutability": "view",
      "type": "function"
    },
    {
      "constant": true,
      "inputs": [
        {
          "internalType": "uint256",
          "name": "_fromReserveBalance",
          "type": "uint256"
        },
        {
          "internalType": "uint32",
          "name": "_fromReserveRatio",
          "type": "uint32"
        },
        {
          "internalType": "uint256",
          "name": "_toReserveBalance",
          "type": "uint256"
        },
        {
          "internalType": "uint32",
          "name": "_toReserveRatio",
          "type": "uint32"
        },
        {
          "internalType": "uint256",
          "name": "_amount",
          "type": "uint256"
        }
      ],
      "name": "calculateCrossReserveReturn",
      "outputs": [
        {
          "internalType": "uint256",
          "name": "",
          "type": "uint256"
        }
      ],
      "payable": false,
      "stateMutability": "view",
      "type": "function"
    },
    {
      "constant": true,
      "inputs": [
        {
          "internalType": "uint256",
          "name": "_supply",
          "type": "uint256"
        },
        {
          "internalType": "uint256",
          "name": "_reserveBalance",
          "type": "uint256"
        },
        {
          "internalType": "uint32",
          "name": "_totalRatio",
          "type": "uint32"
        },
        {
          "internalType": "uint256",
          "name": "_amount",
          "type": "uint256"
        }
      ],
      "name": "calculateFundCost",
      "outputs": [
        {
          "internalType": "uint256",
          "name": "",
          "type": "uint256"
        }
      ],
      "payable": false,
      "stateMutability": "view",
      "type": "function"
    },
    {
      "constant": true,
      "inputs": [
        {
          "internalType": "uint256",
          "name": "_supply",
          "type": "uint256"
        },
        {
          "internalType": "uint256",
          "name": "_reserveBalance",
          "type": "uint256"
        },
        {
          "internalType": "uint32",
          "name": "_totalRatio",
          "type": "uint32"
        },
        {
          "internalType": "uint256",
          "name": "_amount",
          "type": "uint256"
        }
      ],
      "name": "calculateLiquidateReturn",
      "outputs": [
        {
          "internalType": "uint256",
          "name": "",
          "type": "uint256"
        }
      ],
      "payable": false,
      "stateMutability": "view",
      "type": "function"
    },
    {
      "constant": true,
      "inputs": [
        {
          "internalType": "uint256",
          "name": "_supply",
          "type": "uint256"
        },
        {
          "internalType": "uint256",
          "name": "_reserveBalance",
          "type": "uint256"
        },
        {
          "internalType": "uint32",
          "name": "_reserveRatio",
          "type": "uint32"
        },
        {
          "internalType": "uint256",
          "name": "_depositAmount",
          "type": "uint256"
        }
      ],
      "name": "calculatePurchaseReturn",
      "outputs": [
        {
          "internalType": "uint256",
          "name": "",
          "type": "uint256"
        }
      ],
      "payable": false,
      "stateMutability": "view",
      "type": "function"
    },
    {
      "constant": true,
      "inputs": [
        {
          "internalType": "uint256",
          "name": "_supply",
          "type": "uint256"
        },
        {
          "internalType": "uint256",
          "name": "_reserveBalance",
          "type": "uint256"
        },
        {
          "internalType": "uint32",
          "name": "_reserveRatio",
          "type": "uint32"
        },
        {
          "internalType": "uint256",
          "name": "_sellAmount",
          "type": "uint256"
        }
      ],
      "name": "calculateSaleReturn",
      "outputs": [
        {
          "internalType": "uint256",
          "name": "",
          "type": "uint256"
        }
      ],
      "payable": false,
      "stateMutability": "view",
      "type": "function"
    },
    {
      "constant": true,
      "inputs": [],
      "name": "isOwner",
      "outputs": [
        {
          "internalType": "bool",
          "name": "",
          "type": "bool"
        }
      ],
      "payable": false,
      "stateMutability": "view",
      "type": "function"
    },
    {
      "constant": true,
      "inputs": [],
      "name": "isRegistered",
      "outputs": [
        {
          "internalType": "bool",
          "name": "",
          "type": "bool"
        }
      ],
      "payable": false,
      "stateMutability": "view",
      "type": "function"
    },
    {
      "constant": true,
      "inputs": [
        {
          "internalType": "address",
          "name": "scheme",
          "type": "address"
        }
      ],
      "name": "isRegistered",
      "outputs": [
        {
          "internalType": "bool",
          "name": "",
          "type": "bool"
        }
      ],
      "payable": false,
      "stateMutability": "view",
      "type": "function"
    },
    {
      "constant": true,
      "inputs": [],
      "name": "owner",
      "outputs": [
        {
          "internalType": "address",
          "name": "",
          "type": "address"
        }
      ],
      "payable": false,
      "stateMutability": "view",
      "type": "function"
    },
    {
      "constant": false,
      "inputs": [],
      "name": "renounceOwnership",
      "outputs": [],
      "payable": false,
      "stateMutability": "nonpayable",
      "type": "function"
    },
    {
      "constant": true,
      "inputs": [],
      "name": "reserveRatioDailyExpansion",
      "outputs": [
        {
          "internalType": "uint256",
          "name": "",
          "type": "uint256"
        }
      ],
      "payable": false,
      "stateMutability": "view",
      "type": "function"
    },
    {
      "constant": true,
      "inputs": [
        {
          "internalType": "address",
          "name": "",
          "type": "address"
        }
      ],
      "name": "reserveTokens",
      "outputs": [
        {
          "internalType": "uint256",
          "name": "reserveSupply",
          "type": "uint256"
        },
        {
          "internalType": "uint32",
          "name": "reserveRatio",
          "type": "uint32"
        },
        {
          "internalType": "uint256",
          "name": "gdSupply",
          "type": "uint256"
        }
      ],
      "payable": false,
      "stateMutability": "view",
      "type": "function"
    },
    {
      "constant": false,
      "inputs": [
        {
          "internalType": "contract Avatar",
          "name": "_avatar",
          "type": "address"
        }
      ],
      "name": "setAvatar",
      "outputs": [],
      "payable": false,
      "stateMutability": "nonpayable",
      "type": "function"
    },
    {
      "constant": false,
      "inputs": [
        {
          "internalType": "address",
          "name": "newOwner",
          "type": "address"
        }
      ],
      "name": "transferOwnership",
      "outputs": [],
      "payable": false,
      "stateMutability": "nonpayable",
      "type": "function"
    },
    {
      "constant": true,
      "inputs": [],
      "name": "version",
      "outputs": [
        {
          "internalType": "uint16",
          "name": "",
          "type": "uint16"
        }
      ],
      "payable": false,
      "stateMutability": "view",
      "type": "function"
    },
    {
      "constant": false,
      "inputs": [
        {
          "internalType": "uint256",
          "name": "_nom",
          "type": "uint256"
        },
        {
          "internalType": "uint256",
          "name": "_denom",
          "type": "uint256"
        }
      ],
      "name": "setReserveRatioDailyExpansion",
      "outputs": [],
      "payable": false,
      "stateMutability": "nonpayable",
      "type": "function"
    },
    {
      "constant": false,
      "inputs": [
        {
          "internalType": "contract ERC20",
          "name": "_token",
          "type": "address"
        },
        {
          "internalType": "uint256",
          "name": "_gdSupply",
          "type": "uint256"
        },
        {
          "internalType": "uint256",
          "name": "_tokenSupply",
          "type": "uint256"
        },
        {
          "internalType": "uint32",
          "name": "_reserveRatio",
          "type": "uint32"
        }
      ],
      "name": "initializeToken",
      "outputs": [],
      "payable": false,
      "stateMutability": "nonpayable",
      "type": "function"
    },
    {
      "constant": true,
      "inputs": [
        {
          "internalType": "contract ERC20",
          "name": "_token",
          "type": "address"
        }
      ],
      "name": "calculateNewReserveRatio",
      "outputs": [
        {
          "internalType": "uint32",
          "name": "",
          "type": "uint32"
        }
      ],
      "payable": false,
      "stateMutability": "view",
      "type": "function"
    },
    {
      "constant": false,
      "inputs": [
        {
          "internalType": "contract ERC20",
          "name": "_token",
          "type": "address"
        }
      ],
      "name": "expandReserveRatio",
      "outputs": [
        {
          "internalType": "uint32",
          "name": "",
          "type": "uint32"
        }
      ],
      "payable": false,
      "stateMutability": "nonpayable",
      "type": "function"
    },
    {
      "constant": true,
      "inputs": [
        {
          "internalType": "contract ERC20",
          "name": "_token",
          "type": "address"
        },
        {
          "internalType": "uint256",
          "name": "_tokenAmount",
          "type": "uint256"
        }
      ],
      "name": "buyReturn",
      "outputs": [
        {
          "internalType": "uint256",
          "name": "",
          "type": "uint256"
        }
      ],
      "payable": false,
      "stateMutability": "view",
      "type": "function"
    },
    {
      "constant": true,
      "inputs": [
        {
          "internalType": "contract ERC20",
          "name": "_token",
          "type": "address"
        },
        {
          "internalType": "uint256",
          "name": "_gdAmount",
          "type": "uint256"
        }
      ],
      "name": "sellReturn",
      "outputs": [
        {
          "internalType": "uint256",
          "name": "",
          "type": "uint256"
        }
      ],
      "payable": false,
      "stateMutability": "view",
      "type": "function"
    },
    {
      "constant": false,
      "inputs": [
        {
          "internalType": "contract ERC20",
          "name": "_token",
          "type": "address"
        },
        {
          "internalType": "uint256",
          "name": "_tokenAmount",
          "type": "uint256"
        }
      ],
      "name": "buy",
      "outputs": [
        {
          "internalType": "uint256",
          "name": "",
          "type": "uint256"
        }
      ],
      "payable": false,
      "stateMutability": "nonpayable",
      "type": "function"
    },
    {
      "constant": false,
      "inputs": [
        {
          "internalType": "contract ERC20",
          "name": "_token",
          "type": "address"
        },
        {
          "internalType": "uint256",
          "name": "_gdAmount",
          "type": "uint256"
        }
      ],
      "name": "sell",
      "outputs": [
        {
          "internalType": "uint256",
          "name": "",
          "type": "uint256"
        }
      ],
      "payable": false,
      "stateMutability": "nonpayable",
      "type": "function"
    },
    {
      "constant": false,
      "inputs": [
        {
          "internalType": "contract ERC20",
          "name": "_token",
          "type": "address"
        },
        {
          "internalType": "uint256",
          "name": "_gdAmount",
          "type": "uint256"
        },
        {
          "internalType": "uint256",
          "name": "_contributionGdAmount",
          "type": "uint256"
        }
      ],
      "name": "sellWithContribution",
      "outputs": [
        {
          "internalType": "uint256",
          "name": "",
          "type": "uint256"
        }
      ],
      "payable": false,
      "stateMutability": "nonpayable",
      "type": "function"
    },
    {
      "constant": true,
      "inputs": [
        {
          "internalType": "contract ERC20",
          "name": "_token",
          "type": "address"
        }
      ],
      "name": "currentPrice",
      "outputs": [
        {
          "internalType": "uint256",
          "name": "",
          "type": "uint256"
        }
      ],
      "payable": false,
      "stateMutability": "view",
      "type": "function"
    },
    {
      "constant": true,
      "inputs": [
        {
          "internalType": "contract ERC20",
          "name": "_token",
          "type": "address"
        },
        {
          "internalType": "uint256",
          "name": "_addTokenSupply",
          "type": "uint256"
        }
      ],
      "name": "calculateMintInterest",
      "outputs": [
        {
          "internalType": "uint256",
          "name": "",
          "type": "uint256"
        }
      ],
      "payable": false,
      "stateMutability": "view",
      "type": "function"
    },
    {
      "constant": false,
      "inputs": [
        {
          "internalType": "contract ERC20",
          "name": "_token",
          "type": "address"
        },
        {
          "internalType": "uint256",
          "name": "_addTokenSupply",
          "type": "uint256"
        }
      ],
      "name": "mintInterest",
      "outputs": [
        {
          "internalType": "uint256",
          "name": "",
          "type": "uint256"
        }
      ],
      "payable": false,
      "stateMutability": "nonpayable",
      "type": "function"
    },
    {
      "constant": true,
      "inputs": [
        {
          "internalType": "contract ERC20",
          "name": "_token",
          "type": "address"
        }
      ],
      "name": "calculateMintExpansion",
      "outputs": [
        {
          "internalType": "uint256",
          "name": "",
          "type": "uint256"
        }
      ],
      "payable": false,
      "stateMutability": "view",
      "type": "function"
    },
    {
      "constant": false,
      "inputs": [
        {
          "internalType": "contract ERC20",
          "name": "_token",
          "type": "address"
        }
      ],
      "name": "mintExpansion",
      "outputs": [
        {
          "internalType": "uint256",
          "name": "",
          "type": "uint256"
        }
      ],
      "payable": false,
      "stateMutability": "nonpayable",
      "type": "function"
    }
  ],
  "bytecode": "0x60806040526000805461ffff19166006179055608380546001600160a01b03191690553480156200002f57600080fd5b506040516200383c3803806200383c833981810160405260608110156200005557600080fd5b50805160208201516040928301516001641c35fedd1560601b036021556001646c3390ecc9605e1b036022556001640cf801476160611b0360235560016431bdb23e1d605f1b0360245560016502fb1d8fe083605b1b0360255560016505b771955b37605a1b036026556001650af67a93bb5160591b0360275560016515060c256cb360581b036028556001651428a2f98d7360581b036029556001654d515663970960561b03602a55600165944620b0e70f60551b03602b55600166011c592761c66760541b03602c5560016602214d10d014eb60531b03602d55600166020ade36b7dbef60531b03602e5560016603eab73b3bbfe360521b03602f556001660782ee3593f6d760511b036030556001661ccf4b44bb4821604f1b0360315560016606e7f88ad8a77760511b0360325560016669f3d1c921891d604d1b03603355600166cb2ff529eb71e5604c1b03603455600166c2d415c3db974b604c1b0360355560016702eb40f9f620fda7604a1b0360365560016705990681d961a1eb60491b03603755600167055e12902701414760491b0360385560016714962dee9dc9764160471b0360395560016704ef57b9b560fab560491b03603a5560016712ed7b32a58f552b60471b03603b556001679131271922eaa60760441b03603c556001678b380f3558668c4760441b03603d556001680215f77c045fbe885760421b03603e556001600160831b03603f556001670f577eded5773a1160471b0384556001680eb5ec597592befbf5603f1b036041556001681c35fedd14b861eb05603e1b036042556001683619c87664579bc94b603d1b0360435560016867c00a3b07ffc01fd7603c1b03604455600168c6f6c8f8739773a7a5603b1b03604555600168bec763f8209b7a72b1603b1b0360465560016902dbb8caad9b7097b91b60391b03604755600169057b3d49dda84556d6f760381b03604855600169054183095b2c8ececf3160381b036049556001690a14517cc6b9457111ef60371b03604a5560016913545598e5c23276ccf160361b03604b556001692511882c39c3adea96ff60351b03604c55600169471649d87199aa99075760341b03604d557004429a21a029d4c1457cfbffffffffffff604e55700415bc6d6fb7dd71af2cb3ffffffffffff604f557003eab73b3bbfe282243ce1ffffffffffff6050557003c1771ac9fb6b4c18e229ffffffffffff605155700399e96897690418f785257fffffffffff605255700373fc456c53bb779bf0ea9fffffffffff60535570034f9e8e490c48e67e6ab8bfffffffffff60545570032cbfd4a7adc790560b3337ffffffffff60555570030b50570f6e5d2acca94613ffffffffff6056557002eb40f9f620fda6b56c2861ffffffffff6057557002cc8340ecb0d0f520a6af58ffffffffff6058557002af09481380a0a35cf1ba02ffffffffff605955700292c5bdd3b92ec810287b1b3fffffffff605a55700277abdcdab07d5a77ac6d6b9fffffffff605b5570025daf6654b1eaa55fd64df5efffffffff605c55700244c49c648baa98192dce88b7ffffffff605d5570022ce03cd5619a311b2471268bffffffff605e55700215f77c045fbe885654a44a0fffffffff605f556001600160811b036060557001eaefdbdaaee7421fc4d3ede5ffffffff6061557001d6bd8b2eb257df7e8ca57b09bfffffff6062557001c35fedd14b861eb0443f7f133fffffff6063557001b0ce43b322bcde4a56e8ada5afffffff60645570019f0028ec1fff007f5a195a39dfffffff60655570018ded91f0e72ee74f49b15ba527ffffff60665570017d8ec7f04136f4e5615fd41a63ffffff60675570016ddc6556cdb84bdc8d12d22e6fffffff60685570015ecf52776a1155b5bd8395814f7fffff60695570015060c256cb23b3b3cc3754cf40ffffff606a557001428a2f98d728ae223ddab715be3fffff606b5570013545598e5c23276ccf0ede68034fffff606c557001288c4161ce1d6f54b7f61081194fffff606d5570011c592761c666aa641d5a01a40f17ffff606e55700110a688680a7530515f3e6e6cfdcdffff606f557001056f1b5bedf75c6bcb2ce8aed428ffff6070556ffaadceceeff8a0890f3875f008277fff6071556ff05dc6b27edad306388a600f6ba0bfff6072556fe67a5a25da41063de1495d5b18cdbfff6073556fdcff115b14eedde6fc3aa5353f2e4fff6074556fd3e7a3924312399f9aae2e0f868f8fff6075556fcb2ff529eb71e41582cccd5a1ee26fff6076556fc2d415c3db974ab32a51840c0b67edff6077556fbad03e7d883f69ad5b0a186184e06bff6078556fb320d03b2c343d4829abd6075f0cc5ff6079556fabc25204e02828d73c6e80bcdb1a95bf607a556fa4b16f74ee4bb2040a1ec6c15fbbf2df607b556f9deaf736ac1f569deb1b5ae3f36c130f607c556f976bd9952c7aa957f5937d790ef65037607d556f9131271922eaa6064b73a22d0bd4f2bf607e556f8b380f3558668c46c91c49a2f8e967b9607f556f857ddf0117efa215952912839f6473e6608055608180546001600160a01b031916331790819055935192939192909184916001600160a01b03909116906000907f8be0079c531659141344cd1fd0a4f28419497f9722a3daafe3b4186f6b6457e0908290a3608280546001600160a01b0319166001600160a01b0383811691909117918290551615620008a257608260009054906101000a90046001600160a01b03166001600160a01b0316638da5cb5b6040518163ffffffff1660e01b815260040160206040518083038186803b1580156200085457600080fd5b505afa15801562000869573d6000803e3d6000fd5b505050506040513d60208110156200088057600080fd5b5051608380546001600160a01b0319166001600160a01b039092169190911790555b50620008b882826001600160e01b03620008c516565b60865550620009de915050565b60008162000900620008ed856b033b2e3c9fd0803ce80000006001600160e01b036200091016565b600285046001600160e01b036200098516565b816200090857fe5b049392505050565b60008115806200092d575050808202828282816200092a57fe5b04145b6200097f576040805162461bcd60e51b815260206004820152601460248201527f64732d6d6174682d6d756c2d6f766572666c6f77000000000000000000000000604482015290519081900360640190fd5b92915050565b808201828110156200097f576040805162461bcd60e51b815260206004820152601460248201527f64732d6d6174682d6164642d6f766572666c6f77000000000000000000000000604482015290519081900360640190fd5b612e4e80620009ee6000396000f3fe608060405234801561001057600080fd5b50600436106101da5760003560e01c80636cb4b4c1116101045780639f2d0d07116100a2578063cce7ec1311610071578063cce7ec1314610647578063e72a083314610673578063e9833c2f14610699578063f2fde38b146106bf576101da565b80639f2d0d071461059d578063abfd231d146105c0578063bc179d45146105f5578063c3c5a54714610621576101da565b806379c1b450116100de57806379c1b450146104eb578063835bbd55146105285780638da5cb5b146105715780638f32d59b14610595576101da565b80636cb4b4c1146104af578063715018a6146104b757806374920d30146104bf576101da565b806346f7cb231161017c5780635cf3a7a91161014b5780635cf3a7a9146103ee57806365098bb31461041a5780636a989e6e146104575780636c197ff514610483576101da565b806346f7cb231461033657806349f9b0f71461035c578063545bf97e1461039157806354fd4d50146103cf576101da565b806322366844116101b8578063223668441461028057806329a00e7c1461029c578063371d52dc146102d15780633e21374e14610310576101da565b8063086cfca8146101df5780630b184866146102075780631da6bbfb1461024b575b600080fd5b610205600480360360208110156101f557600080fd5b50356001600160a01b03166106e5565b005b6102396004803603606081101561021d57600080fd5b506001600160a01b0381351690602081013590604001356107a0565b60408051918252519081900360200190f35b6102396004803603608081101561026157600080fd5b5080359060208101359063ffffffff6040820135169060600135610964565b610288610a43565b604080519115158252519081900360200190f35b610239600480360360808110156102b257600080fd5b5080359060208101359063ffffffff6040820135169060600135610a53565b6102f7600480360360208110156102e757600080fd5b50356001600160a01b0316610b24565b6040805163ffffffff9092168252519081900360200190f35b6102396004803603602081101561032657600080fd5b50356001600160a01b0316610c1f565b6102f76004803603602081101561034c57600080fd5b50356001600160a01b0316610eed565b6102396004803603608081101561037257600080fd5b5080359060208101359063ffffffff6040820135169060600135610fbe565b610205600480360360808110156103a757600080fd5b5080356001600160a01b0316906020810135906040810135906060013563ffffffff16611098565b6103d7611108565b6040805161ffff9092168252519081900360200190f35b6102396004803603604081101561040457600080fd5b506001600160a01b038135169060200135611112565b610239600480360360a081101561043057600080fd5b5080359063ffffffff602082013581169160408101359160608201351690608001356111ce565b6102396004803603604081101561046d57600080fd5b506001600160a01b0381351690602001356111e9565b6102396004803603604081101561049957600080fd5b506001600160a01b0381351690602001356112a5565b610239611414565b61020561141a565b610239600480360360408110156104d557600080fd5b506001600160a01b038135169060200135611475565b610239600480360360a081101561050157600080fd5b5080359063ffffffff60208201358116916040810135916060820135169060800135611546565b61054e6004803603602081101561053e57600080fd5b50356001600160a01b031661164e565b6040805193845263ffffffff909216602084015282820152519081900360600190f35b610579611675565b604080516001600160a01b039092168252519081900360200190f35b610288611684565b610205600480360360408110156105b357600080fd5b5080359060200135611695565b610239600480360360808110156105d657600080fd5b5080359060208101359063ffffffff6040820135169060600135611794565b6102396004803603604081101561060b57600080fd5b506001600160a01b03813516906020013561181f565b6102886004803603602081101561063757600080fd5b50356001600160a01b0316611960565b6102396004803603604081101561065d57600080fd5b506001600160a01b038135169060200135611a4d565b6102396004803603602081101561068957600080fd5b50356001600160a01b0316611b7b565b610239600480360360208110156106af57600080fd5b50356001600160a01b0316611c3d565b610205600480360360208110156106d557600080fd5b50356001600160a01b0316611dd0565b6106ed611684565b6106f657600080fd5b608280546001600160a01b0319166001600160a01b03838116919091179182905560408051638da5cb5b60e01b815290519290911691638da5cb5b91600480820192602092909190829003018186803b15801561075257600080fd5b505afa158015610766573d6000803e3d6000fd5b505050506040513d602081101561077c57600080fd5b5051608380546001600160a01b0319166001600160a01b0390921691909117905550565b60006107aa611684565b6107b357600080fd5b6001600160a01b03841660009081526085602052604090206002810154859190610812576040805162461bcd60e51b815260206004820152601d6024820152600080516020612dcb833981519152604482015290519081900360640190fd5b838510156108515760405162461bcd60e51b815260040180806020018281038252602f815260200180612deb602f913960400191505060405180910390fd5b6001600160a01b0386166000908152608560205260409020600281015486106108ab5760405162461bcd60e51b8152600401808060200182810382526029815260200180612da26029913960400191505060405180910390fd5b60006108bd878763ffffffff611ded16565b905060006108cb89836111e9565b60028401549091506108e3908963ffffffff611ded16565b600284015582546108fa908263ffffffff611ded16565b8084556002840154604080518a81526020810185905280820192909252606082019290925290516001600160a01b038b169133917fed639966d5b0a89f5ac16d6359c7707785de6e51a00f07dd3197e5fbf0a303749181900360800190a398975050505050505050565b600080851180156109755750600084115b8015610987575060018363ffffffff16115b801561099c5750621e848063ffffffff841611155b6109a557600080fd5b816109b257506000610a3b565b63ffffffff8316620f424014156109e9578460016109d6848763ffffffff611e0216565b03816109de57fe5b046001019050610a3b565b600080806109fd888663ffffffff611e3016565b9050610a0e8189620f424089611e42565b9093509150600060ff83166001610a2b8a8763ffffffff611e0216565b03901c8890036001019450505050505b949350505050565b6000610a4e30611960565b905090565b60008085118015610a645750600084115b8015610a76575060008363ffffffff16115b8015610a8b5750620f424063ffffffff841611155b610a9457600080fd5b81610aa157506000610a3b565b63ffffffff8316620f42401415610ad25783610ac3868463ffffffff611e0216565b81610aca57fe5b049050610a3b565b60008080610ae6858863ffffffff611e3016565b9050610af7818888620f4240611e42565b9093509150600060ff8316610b128a8663ffffffff611e0216565b901c9890980398975050505050505050565b6001600160a01b03811660009081526085602052604081206002810154839190610b83576040805162461bcd60e51b815260206004820152601d6024820152600080516020612dcb833981519152604482015290519081900360640190fd5b610b8b612d7a565b506001600160a01b038416600090815260856020908152604091829020825160608101845281548152600182015463ffffffff169281018390526002909101549281019290925280610bdd5750620f42405b610c15683635c9adc5dea00000610c09610c0163ffffffff808616908490611e0216565b608654611f14565b9063ffffffff611f5516565b9695505050505050565b6001600160a01b03811660009081526085602052604081206002810154839190610c7e576040805162461bcd60e51b815260206004820152601d6024820152600080516020612dcb833981519152604482015290519081900360640190fd5b610c86612d7a565b506001600160a01b0384166000908152608560209081526040808320815160608101835281548152600182015463ffffffff1693810193909352600201549082015290610cd286610b24565b90506000610d4f876001600160a01b031663313ce5676040518163ffffffff1660e01b815260040160206040518083038186803b158015610d1257600080fd5b505afa158015610d26573d6000803e3d6000fd5b505050506040513d6020811015610d3c57600080fd5b5051601b9060ff1663ffffffff611ded16565b90506000610d94610d7363ffffffff80861690683635c9adc5dea0000090611e0216565b610d8f84600a0a610d838c611c3d565b9063ffffffff611e0216565b611f14565b90506000608260009054906101000a90046001600160a01b03166001600160a01b031663e1758bd86040518163ffffffff1660e01b815260040160206040518083038186803b158015610de657600080fd5b505afa158015610dfa573d6000803e3d6000fd5b505050506040513d6020811015610e1057600080fd5b50516040805163313ce56760e01b81529051919250600091610e97916001600160a01b0385169163313ce56791600480820192602092909190829003018186803b158015610e5d57600080fd5b505afa158015610e71573d6000803e3d6000fd5b505050506040513d6020811015610e8757600080fd5b5051601b9063ffffffff611ded16565b90506000610ec582600a0a610c09610ebf88600a0a8b60000151611e0290919063ffffffff16565b87611f77565b9050610ede876040015182611ded90919063ffffffff16565b9b9a5050505050505050505050565b6000610ef7611684565b610f0057600080fd5b6001600160a01b03821660009081526085602052604090206002810154839190610f5f576040805162461bcd60e51b815260206004820152601d6024820152600080516020612dcb833981519152604482015290519081900360640190fd5b6001600160a01b0384166000908152608560205260409020600181015463ffffffff1680610f8d5750620f42405b610f9686610b24565b600192909201805463ffffffff191663ffffffff938416179081905590911695945050505050565b60008085118015610fcf5750600084115b8015610fe1575060008363ffffffff16115b8015610ff65750620f424063ffffffff841611155b80156110025750848211155b61100b57600080fd5b8161101857506000610a3b565b84821415611027575082610a3b565b63ffffffff8316620f424014156110495784610ac3858463ffffffff611e0216565b60008083870361105e8882620f424089611e42565b90935091506000611075888563ffffffff611e0216565b905060ff831688901b848183038161108957fe5b049a9950505050505050505050565b6110a0611684565b6110a957600080fd5b6040805160608101825292835263ffffffff91821660208085019182528483019586526001600160a01b039690961660009081526085909652942091518255925160018201805463ffffffff1916919094161790925551600290910155565b60005461ffff1681565b6001600160a01b03821660009081526085602052604081206002810154849190611171576040805162461bcd60e51b815260206004820152601d6024820152600080516020612dcb833981519152604482015290519081900360640190fd5b611179612d7a565b506001600160a01b03851660009081526085602090815260409182902082516060810184528154808252600183015463ffffffff1693820184905260029092015493810184905292610c159290919088610a53565b60006111dd8686868686611546565b90505b95945050505050565b6001600160a01b03821660009081526085602052604081206002810154849190611248576040805162461bcd60e51b815260206004820152601d6024820152600080516020612dcb833981519152604482015290519081900360640190fd5b611250612d7a565b506001600160a01b03851660009081526085602090815260409182902082516060810184528154808252600183015463ffffffff1693820184905260029092015493810184905292610c159290919088610fbe565b60006112af611684565b6112b857600080fd5b6001600160a01b03831660009081526085602052604090206002810154849190611317576040805162461bcd60e51b815260206004820152601d6024820152600080516020612dcb833981519152604482015290519081900360640190fd5b6001600160a01b0385166000908152608560205260409020600281015485106113715760405162461bcd60e51b8152600401808060200182810382526029815260200180612da26029913960400191505060405180910390fd5b600061137d87876111e9565b6002830154909150611395908763ffffffff611ded16565b600283015581546113ac908263ffffffff611ded16565b8083556002830154604080518981526020810185905280820192909252606082019290925290516001600160a01b0389169133917fed639966d5b0a89f5ac16d6359c7707785de6e51a00f07dd3197e5fbf0a303749181900360800190a39695505050505050565b60865481565b611422611684565b61142b57600080fd5b6081546040516000916001600160a01b0316907f8be0079c531659141344cd1fd0a4f28419497f9722a3daafe3b4186f6b6457e0908390a3608180546001600160a01b0319169055565b600061147f611684565b61148857600080fd5b8161149557506000611540565b60006114a1848461181f565b6001600160a01b03851660009081526085602052604090206002810154815492935090916114d5828563ffffffff611e3016565b60028401556114ea818763ffffffff611e3016565b8355604080518781526020810184905280820186905290516001600160a01b0389169133917fbecd073f6198ce1d3038bf9a242d869e1f276e2370746f104c735fa8d4fa313c9181900360600190a35091925050505b92915050565b6000808611801561155d575060008563ffffffff16115b80156115725750620f424063ffffffff861611155b801561157e5750600084115b8015611590575060008363ffffffff16115b80156115a55750620f424063ffffffff841611155b6115ae57600080fd5b8263ffffffff168563ffffffff1614156115f1576115d2868363ffffffff611e3016565b6115e2858463ffffffff611e0216565b816115e957fe5b0490506111e0565b60008080611605898663ffffffff611e3016565b9050611613818a8a89611e42565b9093509150600061162a888563ffffffff611e0216565b905060ff831688901b848183038161163e57fe5b049b9a5050505050505050505050565b608560205260009081526040902080546001820154600290920154909163ffffffff169083565b6081546001600160a01b031690565b6081546001600160a01b0316331490565b6082546001600160a01b031633146116f4576040805162461bcd60e51b815260206004820181905260248201527f6f6e6c79204176617461722063616e2063616c6c2074686973206d6574686f64604482015290519081900360640190fd5b60008111611749576040805162461bcd60e51b815260206004820152601b60248201527f64656e6f6d696e61746f72206d7573742062652061626f766520300000000000604482015290519081900360640190fd5b6117538282611f77565b6086556040805183815260208101839052815133927fcd3db955892df8543ef392cb55c3f36e13ad4c38e151c8315101b3006ef105df928290030190a25050565b600080851180156117a55750600084115b80156117b7575060018363ffffffff16115b80156117cc5750621e848063ffffffff841611155b80156117d85750848211155b6117e157600080fd5b816117ee57506000610a3b565b848214156117fd575082610a3b565b63ffffffff8316620f424014156110495784610ac3838663ffffffff611e0216565b6001600160a01b0382166000908152608560205260408120600281015484919061187e576040805162461bcd60e51b815260206004820152601d6024820152600080516020612dcb833981519152604482015290519081900360640190fd5b60825460408051631c2eb17b60e31b815290516000926001600160a01b03169163e1758bd8916004808301926020929190829003018186803b1580156118c357600080fd5b505afa1580156118d7573d6000803e3d6000fd5b505050506040513d60208110156118ed57600080fd5b50516040805163313ce56760e01b8152905191925060009161193a916001600160a01b0385169163313ce56791600480820192602092909190829003018186803b158015610e5d57600080fd5b905061195581600a0a610c09886119508b611c3d565b611f77565b979650505050505050565b6082546000906001600160a01b03166119b4576040805162461bcd60e51b8152602060048201526011602482015270105d985d185c881a5cc81b9bdd081cd95d607a1b604482015290519081900360640190fd5b60835460825460408051639be2faed60e01b81526001600160a01b038681166004830152928316602482015290519190921691639be2faed916044808301926020929190829003018186803b158015611a0c57600080fd5b505afa158015611a20573d6000803e3d6000fd5b505050506040513d6020811015611a3657600080fd5b5051611a4457506000611a48565b5060015b919050565b6000611a57611684565b611a6057600080fd5b6001600160a01b03831660009081526085602052604090206002810154849190611abf576040805162461bcd60e51b815260206004820152601d6024820152600080516020612dcb833981519152604482015290519081900360640190fd5b6000611acb8686611112565b6001600160a01b0387166000908152608560205260409020600281015491925090611afc908363ffffffff611e3016565b60028201558054611b13908763ffffffff611e3016565b8082556002820154604080518981526020810186905280820192909252606082019290925290516001600160a01b0389169133917fed639966d5b0a89f5ac16d6359c7707785de6e51a00f07dd3197e5fbf0a303749181900360800190a35095945050505050565b6000611b85611684565b611b8e57600080fd5b6000611b9983610c1f565b6001600160a01b038416600090815260856020526040902060028101546001820154929350909163ffffffff90811690611bd79083908690611e3016565b6002840155611be586610eed565b50604080518281526020810184905280820186905290516001600160a01b0388169133917fdf7a14785c215a09814aa4ee13a4578dd9842e48d61a2dda15aadd4b98c8007d9181900360600190a35091949350505050565b6001600160a01b03811660009081526085602052604081206002810154839190611c9c576040805162461bcd60e51b815260206004820152601d6024820152600080516020612dcb833981519152604482015290519081900360640190fd5b611ca4612d7a565b506001600160a01b038085166000908152608560209081526040808320815160608101835281548152600182015463ffffffff1681850152600290910154818301526082548251631c2eb17b60e31b815292519195169263e1758bd89260048082019391829003018186803b158015611d1c57600080fd5b505afa158015611d30573d6000803e3d6000fd5b505050506040513d6020811015611d4657600080fd5b50516040808401518451602086810151845163313ce56760e01b81529451959650610c15959394929390926001600160a01b0388169263313ce56792600480840193829003018186803b158015611d9c57600080fd5b505afa158015611db0573d6000803e3d6000fd5b505050506040513d6020811015611dc657600080fd5b5051600a0a610fbe565b611dd8611684565b611de157600080fd5b611dea81611f9b565b50565b600082821115611dfc57600080fd5b50900390565b600082611e1157506000611540565b82820282848281611e1e57fe5b0414611e2957600080fd5b9392505050565b600082820183811015611e2957600080fd5b600080600160811b8610611e5557600080fd5b600080866001607f1b890281611e6757fe5b04905070015bf0a8b1457695355fb8ac404e7a79e3811015611e9357611e8c8161200a565b9150611e9f565b611e9c816123ec565b91505b60008563ffffffff168763ffffffff16840281611eb857fe5b049050600160831b811015611ede57611ed081612496565b607f94509450505050611f0b565b6000611ee98261283a565b9050611efe81607f0360ff1683901c826128ca565b95509350611f0b92505050565b94509492505050565b60006b033b2e3c9fd0803ce8000000611f46611f308585612c67565b60026b033b2e3c9fd0803ce80000005b04612cca565b81611f4d57fe5b049392505050565b6000808211611f6357600080fd5b6000828481611f6e57fe5b04949350505050565b600081611f46611f93856b033b2e3c9fd0803ce8000000612c67565b600285611f40565b6001600160a01b038116611fae57600080fd5b6081546040516001600160a01b038084169216907f8be0079c531659141344cd1fd0a4f28419497f9722a3daafe3b4186f6b6457e090600090a3608180546001600160a01b0319166001600160a01b0392909216919091179055565b6000808080806fd3094c70f034de4b96ff7d5b6f99fcd88610612053576001607e1b840193506fd3094c70f034de4b96ff7d5b6f99fcd86001607f1b87028161204f57fe5b0495505b6fa45af1e1f40c333b3de1db4dd55f29a78610612096576001607d1b840193506fa45af1e1f40c333b3de1db4dd55f29a76001607f1b87028161209257fe5b0495505b6f910b022db7ae67ce76b441c27035c6a186106120d9576001607c1b840193506f910b022db7ae67ce76b441c27035c6a16001607f1b8702816120d557fe5b0495505b6f88415abbe9a76bead8d00cf112e4d4a8861061211c576001607b1b840193506f88415abbe9a76bead8d00cf112e4d4a86001607f1b87028161211857fe5b0495505b6f84102b00893f64c705e841d5d4064bd3861061215f576001607a1b840193506f84102b00893f64c705e841d5d4064bd36001607f1b87028161215b57fe5b0495505b6f8204055aaef1c8bd5c3259f4822735a286106121a257600160791b840193506f8204055aaef1c8bd5c3259f4822735a26001607f1b87028161219e57fe5b0495505b6f810100ab00222d861931c15e39b44e9986106121e557600160781b840193506f810100ab00222d861931c15e39b44e996001607f1b8702816121e157fe5b0495505b6f808040155aabbbe9451521693554f733861061222857600160771b840193506f808040155aabbbe9451521693554f7336001607f1b87028161222457fe5b0495505b6f7fffffffffffffffffffffffffffffff19860192508291506001607f1b828002049050600160801b838103830204840193506001607f1b8183028161226a57fe5b049150600160811b836faaaaaaaaaaaaaaaaaaaaaaaaaaaaaaaa0383028161228e57fe5b04840193506001607f1b818302816122a257fe5b049150600360801b836f99999999999999999999999999999999038302816122c657fe5b04840193506001607f1b818302816122da57fe5b049150600160821b836f92492492492492492492492492492492038302816122fe57fe5b04840193506001607f1b8183028161231257fe5b049150600560801b836f8e38e38e38e38e38e38e38e38e38e38e0383028161233657fe5b04840193506001607f1b8183028161234a57fe5b049150600360811b836f8ba2e8ba2e8ba2e8ba2e8ba2e8ba2e8b0383028161236e57fe5b04840193506001607f1b8183028161238257fe5b049150600760801b836f89d89d89d89d89d89d89d89d89d89d89038302816123a657fe5b04840193506001607f1b818302816123ba57fe5b049150600160831b836f88888888888888888888888888888888038302816123de57fe5b049390930195945050505050565b600080600160801b831061241c57600061240b6001607f1b8504612d19565b60ff1693841c936001607f1b029150505b6001607f1b83111561246a57607f5b60ff811615612468576001607f1b848002049350600160801b841061245f57600193841c9360ff6000198301161b91909101905b6000190161242b565b505b6f05b9de1d10bf4103d647b0955897ba806f03f80fe03f80fe03f80fe03f80fe03f88202049392505050565b6000670168244fdac780006001607f1b6f0fffffffffffffffffffffffffffffff84168080028290048082028390048083028490049485026710e1b3be415a00009092026705a0913f6b1e000091909102010192909181830204905080664807432bc1800002830192506001607f1b8282028161250f57fe5b04905080660c0135dca0400002830192506001607f1b8282028161252f57fe5b049050806601b707b1cdc00002830192506001607f1b8282028161254f57fe5b049050806536e0f639b80002830192506001607f1b8282028161256e57fe5b04905080650618fee9f80002830192506001607f1b8282028161258d57fe5b04905080649c197dcc0002830192506001607f1b828202816125ab57fe5b04905080640e30dce40002830192506001607f1b828202816125c957fe5b0490508064012ebd130002830192506001607f1b828202816125e757fe5b049050806317499f0002830192506001607f1b8282028161260457fe5b049050806301a9d48002830192506001607f1b8282028161262157fe5b04905080621c638002830192506001607f1b8282028161263d57fe5b049050806201c63802830192506001607f1b8282028161265957fe5b04905080611ab802830192506001607f1b8282028161267457fe5b0490508061017c02830192506001607f1b8282028161268f57fe5b04905080601402830192506001607f1b828202816126a957fe5b6721c3677c82b400009190049384010482016001607f1b019290506001607c1b8516156126fa5770018ebef9eac820ae8682b9793ac6d1e7767001c3d6a24ed82218787d624d3e5eba95f984020492505b6001607d1b851615612730577001368b2fc6f9609fe7aceb46aa619baed470018ebef9eac820ae8682b9793ac6d1e77884020492505b6001607e1b851615612765576fbc5ab1b16779be3575bd8f0520a9f21f7001368b2fc6f9609fe7aceb46aa619baed584020492505b6001607f1b851615612799576f454aaa8efe072e7f6ddbab84b40a55c96fbc5ab1b16779be3575bd8f0520a9f21e84020492505b600160801b8516156127cd576f0960aadc109e7a3bf4578099615711ea6f454aaa8efe072e7f6ddbab84b40a55c584020492505b600160811b851615612800576e2bf84208204f5977f9a8cf01fdce3d6f0960aadc109e7a3bf4578099615711d784020492505b600160821b851615612831576d03c6ab775dd0b95b4cbee7e65d116e2bf84208204f5977f9a8cf01fdc30784020492505b50909392505050565b60006020607f5b8060ff168260010160ff161015612889576000600260ff848401160490508460018260ff166080811061287057fe5b01541061287f57809250612883565b8091505b50612841565b8360018260ff166080811061289a57fe5b0154106128aa579150611a489050565b8360018360ff16608081106128bb57fe5b0154106101da57509050611a48565b60008083905060008090508360ff16858302901c9150816f03442c4e6074a82f1797f72ac000000002810190508360ff16858302901c9150816f0116b96f757c380fb287fd0e4000000002810190508360ff16858302901c9150816e45ae5bdd5f0e03eca1ff439000000002810190508360ff16858302901c9150816e0defabf91302cd95b9ffda5000000002810190508360ff16858302901c9150816e02529ca9832b22439efff9b800000002810190508360ff16858302901c9150816d54f1cf12bd04e516b6da8800000002810190508360ff16858302901c9150816d0a9e39e257a09ca2d6db5100000002810190508360ff16858302901c9150816d012e066e7b839fa050c30900000002810190508360ff16858302901c9150816c1e33d7d926c329a1ad1a80000002810190508360ff16858302901c9150816c02bee513bdb4a6b19b5f80000002810190508360ff16858302901c9150816b3a9316fa79b88eccf2a0000002810190508360ff16858302901c9150816b048177ebe1fa81237520000002810190508360ff16858302901c9150816a5263fe90242dcbacf0000002810190508360ff16858302901c9150816a057e22099c030d9410000002810190508360ff16858302901c9150816957e22099c030d941000002810190508360ff16858302901c91508169052b6b5456997631000002810190508360ff16858302901c915081684985f67696bf74800002810190508360ff16858302901c9150816803dea12ea99e49800002810190508360ff16858302901c9150816731880f2214b6e00002810190508360ff16858302901c91508167025bcff56eb3600002810190508360ff16858302901c915081661b722e10ab100002810190508360ff16858302901c9150816601317c7007700002810190508360ff16858302901c915081650cba84aafa0002810190508360ff16858302901c9150816482573a0a0002810190508360ff16858302901c9150816405035ad90002810190508360ff16858302901c915081632f881b0002810190508360ff16858302901c9150816301b2934002810190508360ff16858302901c915081620efc4002810190508360ff16858302901c915081617fe002810190508360ff16858302901c91508161042002810190508360ff16858302901c915081602102810190508360ff16858302901c915081600102810190508360ff166001901b856f0688589cc0e9505e2f2fee55800000008381612c5b57fe5b04010195945050505050565b6000811580612c8257505080820282828281612c7f57fe5b04145b611540576040805162461bcd60e51b815260206004820152601460248201527364732d6d6174682d6d756c2d6f766572666c6f7760601b604482015290519081900360640190fd5b80820182811015611540576040805162461bcd60e51b815260206004820152601460248201527364732d6d6174682d6164642d6f766572666c6f7760601b604482015290519081900360640190fd5b600080610100831015612d41575b6001831115612d3c57600192831c9201612d27565b611540565b60805b60ff811615612d7357600160ff82161b8410612d685760ff81169390931c92908117905b60011c607f16612d44565b5092915050565b604051806060016040528060008152602001600063ffffffff16815260200160008152509056fe474420616d6f756e7420697320686967686572207468616e2074686520746f74616c20737570706c795265736572766520746f6b656e206e6f7420696e697469616c697a6564000000474420616d6f756e74206973206c6f776572207468616e2074686520636f6e747269627574696f6e20616d6f756e74a265627a7a723158200bbc2cedbd60c0bcfe652548270f3aa8d63bec7b1bc5e3fde6e73eac1f9bea8e64736f6c63430005100032",
  "source": "pragma solidity >0.5.4;\n\nimport \"openzeppelin-solidity/contracts/math/SafeMath.sol\";\nimport \"openzeppelin-solidity/contracts/token/ERC20/ERC20.sol\";\nimport \"openzeppelin-solidity/contracts/token/ERC20/ERC20Detailed.sol\";\nimport \"@daostack/arc/contracts/controller/Avatar.sol\";\nimport \"../../contracts/token/GoodDollar.sol\";\nimport \"../../contracts/dao/schemes/SchemeGuard.sol\";\nimport \"../../contracts/DSMath.sol\";\nimport \"./BancorFormula.sol\";\n\n/**\n@title Dynamic reserve ratio market maker\n*/\ncontract GoodMarketMaker is BancorFormula, DSMath, SchemeGuard {\n    using SafeMath for uint256;\n\n    // For calculate the return value on buy and sell\n    BancorFormula bancor;\n\n    // Entity that holds a reserve token\n    struct ReserveToken {\n        // Determines the reserve token balance\n        // that the reserve contract holds\n        uint256 reserveSupply;\n        // Determines the current ratio between\n        // the reserve token and the GD token\n        uint32 reserveRatio;\n        // How many GD tokens have been minted\n        // against that reserve token\n        uint256 gdSupply;\n    }\n\n    // The map which holds the reserve token entities\n    mapping(address => ReserveToken) public reserveTokens;\n\n    // Emits when a change has occurred in a\n    // reserve balance, i.e. buy / sell will\n    // change the balance\n    event BalancesUpdated(\n        // The account who initiated the action\n        address indexed caller,\n        // The address of the reserve token\n        address indexed reserveToken,\n        // The incoming amount\n        uint256 amount,\n        // The return value\n        uint256 returnAmount,\n        // The updated total supply\n        uint256 totalSupply,\n        // The updated reserve balance\n        uint256 reserveBalance\n    );\n\n    // Emits when the ratio changed. The caller should be the Avatar by definition\n    event ReserveRatioUpdated(address indexed caller, uint256 nom, uint256 denom);\n\n    // Emits when new tokens should be minted\n    // as a result of incoming interest.\n    // That event will be emitted after the\n    // reserve entity has been updated\n    event InterestMinted(\n        // The account who initiated the action\n        address indexed caller,\n        // The address of the reserve token\n        address indexed reserveToken,\n        // How much new reserve tokens been\n        // added to the reserve balance\n        uint256 addInterest,\n        // The GD supply in the reserve entity\n        // before the new minted GD tokens were\n        // added to the supply\n        uint256 oldSupply,\n        // The number of the new minted GD tokens\n        uint256 mint\n    );\n\n    // Emits when new tokens should be minted\n    // as a result of a reserve ratio expansion\n    // change. This change should have occurred\n    // on a regular basis. That event will be\n    // emitted after the reserve entity has been\n    // updated\n    event UBIExpansionMinted(\n        // The account who initiated the action\n        address indexed caller,\n        // The address of the reserve token\n        address indexed reserveToken,\n        // The reserve ratio before the expansion\n        uint256 oldReserveRatio,\n        // The GD supply in the reserve entity\n        // before the new minted GD tokens were\n        // added to the supply\n        uint256 oldSupply,\n        // The number of the new minted GD tokens\n        uint256 mint\n    );\n\n    // Defines the daily change in the reserve ratio in RAY precision.\n    // In the current release, only global ratio expansion is supported.\n    // That will be a part of each reserve token entity in the future.\n    uint256 public reserveRatioDailyExpansion;\n\n    /**\n     * @dev Constructor\n     * @param _avatar The avatar of the DAO\n     * @param _nom The numerator to calculate the global `reserveRatioDailyExpansion` from\n     * @param _denom The denominator to calculate the global `reserveRatioDailyExpansion` from\n     */\n    constructor(\n        Avatar _avatar,\n        uint256 _nom,\n        uint256 _denom\n    ) public SchemeGuard(_avatar) {\n        reserveRatioDailyExpansion = rdiv(_nom, _denom);\n    }\n\n    modifier onlyActiveToken(ERC20 _token) {\n        ReserveToken storage rtoken = reserveTokens[address(_token)];\n        require(rtoken.gdSupply > 0, \"Reserve token not initialized\");\n        _;\n    }\n\n    /**\n     * @dev Allows the DAO to change the daily expansion rate\n     * it is calculated by _nom/_denom with e27 precision. Emits\n     * `ReserveRatioUpdated` event after the ratio has changed.\n     * Only Avatar can call this method.\n     * @param _nom The numerator to calculate the global `reserveRatioDailyExpansion` from\n     * @param _denom The denominator to calculate the global `reserveRatioDailyExpansion` from\n     */\n    function setReserveRatioDailyExpansion(uint256 _nom, uint256 _denom)\n        public\n        onlyAvatar\n    {\n        require(_denom > 0, \"denominator must be above 0\");\n        reserveRatioDailyExpansion = rdiv(_nom, _denom);\n        emit ReserveRatioUpdated(msg.sender, _nom, _denom);\n    }\n\n    // NOTICE: In the current release, if there is a wish to add another reserve token,\n    //  `end` method in the reserve contract should be called first. Then, the DAO have\n    //  to deploy a new reserve contract that will own the market maker. A scheme for\n    // updating the new reserve must be deployed too.\n\n    /**\n     * @dev Initialize a reserve token entity with the given parameters\n     * @param _token The reserve token\n     * @param _gdSupply Initial supply of GD to set the price\n     * @param _tokenSupply Initial supply of reserve token to set the price\n     * @param _reserveRatio The starting reserve ratio\n     */\n    function initializeToken(\n        ERC20 _token,\n        uint256 _gdSupply,\n        uint256 _tokenSupply,\n        uint32 _reserveRatio\n    ) public onlyOwner {\n        reserveTokens[address(_token)] = ReserveToken({\n            gdSupply: _gdSupply,\n            reserveSupply: _tokenSupply,\n            reserveRatio: _reserveRatio\n        });\n    }\n\n    /**\n     * @dev Calculates how much to decrease the reserve ratio for _token by\n     * the `reserveRatioDailyExpansion`\n     * @param _token The reserve token to calculate the reserve ratio for\n     * @return The new reserve ratio\n     */\n    function calculateNewReserveRatio(ERC20 _token)\n        public\n        view\n        onlyActiveToken(_token)\n        returns (uint32)\n    {\n        ReserveToken memory reserveToken = reserveTokens[address(_token)];\n        uint32 ratio = reserveToken.reserveRatio;\n        if (ratio == 0) {\n            ratio = 1e6;\n        }\n        return\n            uint32(\n                rmul(\n                    uint256(ratio).mul(1e21), // expand to e27 precision\n                    reserveRatioDailyExpansion\n                )\n                    .div(1e21) // return to e6 precision\n            );\n    }\n\n    /**\n     * @dev Decreases the reserve ratio for _token by the `reserveRatioDailyExpansion`\n     * @param _token The token to change the reserve ratio for\n     * @return The new reserve ratio\n     */\n    function expandReserveRatio(ERC20 _token)\n        public\n        onlyOwner\n        onlyActiveToken(_token)\n        returns (uint32)\n    {\n        ReserveToken storage reserveToken = reserveTokens[address(_token)];\n        uint32 ratio = reserveToken.reserveRatio;\n        if (ratio == 0) {\n            ratio = 1e6;\n        }\n        reserveToken.reserveRatio = calculateNewReserveRatio(_token);\n        return reserveToken.reserveRatio;\n    }\n\n    /**\n     * @dev Calculates the buy return in GD according to the given _tokenAmount\n     * @param _token The reserve token buying with\n     * @param _tokenAmount The amount of reserve token buying with\n     * @return Number of GD that should be given in exchange as calculated by the bonding curve\n     */\n    function buyReturn(ERC20 _token, uint256 _tokenAmount)\n        public\n        view\n        onlyActiveToken(_token)\n        returns (uint256)\n    {\n        ReserveToken memory rtoken = reserveTokens[address(_token)];\n        return\n            calculatePurchaseReturn(\n                rtoken.gdSupply,\n                rtoken.reserveSupply,\n                rtoken.reserveRatio,\n                _tokenAmount\n            );\n    }\n\n    /**\n     * @dev Calculates the sell return in _token according to the given _gdAmount\n     * @param _token The desired reserve token to have\n     * @param _gdAmount The amount of GD that are sold\n     * @return Number of tokens that should be given in exchange as calculated by the bonding curve\n     */\n    function sellReturn(ERC20 _token, uint256 _gdAmount)\n        public\n        view\n        onlyActiveToken(_token)\n        returns (uint256)\n    {\n        ReserveToken memory rtoken = reserveTokens[address(_token)];\n        return\n            calculateSaleReturn(\n                rtoken.gdSupply,\n                rtoken.reserveSupply,\n                rtoken.reserveRatio,\n                _gdAmount\n            );\n    }\n\n    /**\n     * @dev Updates the _token bonding curve params. Emits `BalancesUpdated` with the\n     * new reserve token information.\n     * @param _token The reserve token buying with\n     * @param _tokenAmount The amount of reserve token buying with\n     * @return (gdReturn) Number of GD that will be given in exchange as calculated by the bonding curve\n     */\n    function buy(ERC20 _token, uint256 _tokenAmount)\n        public\n        onlyOwner\n        onlyActiveToken(_token)\n        returns (uint256)\n    {\n        uint256 gdReturn = buyReturn(_token, _tokenAmount);\n        ReserveToken storage rtoken = reserveTokens[address(_token)];\n        rtoken.gdSupply = rtoken.gdSupply.add(gdReturn);\n        rtoken.reserveSupply = rtoken.reserveSupply.add(_tokenAmount);\n        emit BalancesUpdated(\n            msg.sender,\n            address(_token),\n            _tokenAmount,\n            gdReturn,\n            rtoken.gdSupply,\n            rtoken.reserveSupply\n        );\n        return gdReturn;\n    }\n\n    /**\n     * @dev Updates the _token bonding curve params. Emits `BalancesUpdated` with the\n     * new reserve token information.\n     * @param _token The desired reserve token to have\n     * @param _gdAmount The amount of GD that are sold\n     * @return Number of tokens that will be given in exchange as calculated by the bonding curve\n     */\n    function sell(ERC20 _token, uint256 _gdAmount)\n        public\n        onlyOwner\n        onlyActiveToken(_token)\n        returns (uint256)\n    {\n        ReserveToken storage rtoken = reserveTokens[address(_token)];\n        require(rtoken.gdSupply > _gdAmount, \"GD amount is higher than the total supply\");\n        uint256 tokenReturn = sellReturn(_token, _gdAmount);\n        rtoken.gdSupply = rtoken.gdSupply.sub(_gdAmount);\n        rtoken.reserveSupply = rtoken.reserveSupply.sub(tokenReturn);\n        emit BalancesUpdated(\n            msg.sender,\n            address(_token),\n            _gdAmount,\n            tokenReturn,\n            rtoken.gdSupply,\n            rtoken.reserveSupply\n        );\n        return tokenReturn;\n    }\n\n    /**\n     * @dev Calculates the sell return with contribution in _token and update the bonding curve params.\n     * Emits `BalancesUpdated` with the new reserve token information.\n     * @param _token The desired reserve token to have\n     * @param _gdAmount The amount of GD that are sold\n     * @param _contributionGdAmount The number of GD tokens that will not be traded for the reserve token\n     * @return Number of tokens that will be given in exchange as calculated by the bonding curve\n     */\n    function sellWithContribution(\n        ERC20 _token,\n        uint256 _gdAmount,\n        uint256 _contributionGdAmount\n    ) public onlyOwner onlyActiveToken(_token) returns (uint256) {\n        require(\n            _gdAmount >= _contributionGdAmount,\n            \"GD amount is lower than the contribution amount\"\n        );\n        ReserveToken storage rtoken = reserveTokens[address(_token)];\n        require(rtoken.gdSupply > _gdAmount, \"GD amount is higher than the total supply\");\n\n        // Deduces the convertible amount of GD tokens by the given contribution amount\n        uint256 amountAfterContribution = _gdAmount.sub(_contributionGdAmount);\n\n        // The return value after the deduction\n        uint256 tokenReturn = sellReturn(_token, amountAfterContribution);\n        rtoken.gdSupply = rtoken.gdSupply.sub(_gdAmount);\n        rtoken.reserveSupply = rtoken.reserveSupply.sub(tokenReturn);\n        emit BalancesUpdated(\n            msg.sender,\n            address(_token),\n            _contributionGdAmount,\n            tokenReturn,\n            rtoken.gdSupply,\n            rtoken.reserveSupply\n        );\n        return tokenReturn;\n    }\n\n    /**\n     * @dev Current price of GD in `token`. currently only cDAI is supported.\n     * @param _token The desired reserve token to have\n     * @return price of GD\n     */\n    function currentPrice(ERC20 _token)\n        public\n        view\n        onlyActiveToken(_token)\n        returns (uint256)\n    {\n        ReserveToken memory rtoken = reserveTokens[address(_token)];\n        GoodDollar gooddollar = GoodDollar(address(avatar.nativeToken()));\n        return\n            calculateSaleReturn(\n                rtoken.gdSupply,\n                rtoken.reserveSupply,\n                rtoken.reserveRatio,\n                (10**uint256(gooddollar.decimals()))\n            );\n    }\n\n    //TODO: need real calculation and tests\n    /**\n     * @dev Calculates how much G$ to mint based on added token supply (from interest)\n     * and on current reserve ratio, in order to keep G$ price the same at the bonding curve\n     * formula to calculate the gd to mint: gd to mint =\n     * addreservebalance * (gdsupply / (reservebalance * reserveratio))\n     * @param _token the reserve token\n     * @param _addTokenSupply amount of token added to supply\n     * @return how much to mint in order to keep price in bonding curve the same\n     */\n    function calculateMintInterest(ERC20 _token, uint256 _addTokenSupply)\n        public\n        view\n        onlyActiveToken(_token)\n        returns (uint256)\n    {\n        GoodDollar gooddollar = GoodDollar(address(avatar.nativeToken()));\n        uint256 decimalsDiff = uint256(27).sub(uint256(gooddollar.decimals()));\n        //resulting amount is in RAY precision\n        //we divide by decimalsdiff to get precision in GD (2 decimals)\n        return rdiv(_addTokenSupply, currentPrice(_token)).div(10**decimalsDiff);\n    }\n\n    /**\n     * @dev Updates bonding curve based on _addTokenSupply and new minted amount\n     * @param _token The reserve token\n     * @param _addTokenSupply Amount of token added to supply\n     * @return How much to mint in order to keep price in bonding curve the same\n     */\n    function mintInterest(ERC20 _token, uint256 _addTokenSupply)\n        public\n        onlyOwner\n        returns (uint256)\n    {\n        if (_addTokenSupply == 0) {\n            return 0;\n        }\n        uint256 toMint = calculateMintInterest(_token, _addTokenSupply);\n        ReserveToken storage reserveToken = reserveTokens[address(_token)];\n        uint256 gdSupply = reserveToken.gdSupply;\n        uint256 reserveBalance = reserveToken.reserveSupply;\n        reserveToken.gdSupply = gdSupply.add(toMint);\n        reserveToken.reserveSupply = reserveBalance.add(_addTokenSupply);\n        emit InterestMinted(\n            msg.sender,\n            address(_token),\n            _addTokenSupply,\n            gdSupply,\n            toMint\n        );\n        return toMint;\n    }\n\n    /**\n     * @dev Calculate how much G$ to mint based on expansion change (new reserve\n     * ratio), in order to keep G$ price the same at the bonding curve. the\n     * formula to calculate the gd to mint: gd to mint =\n     * (reservebalance / (newreserveratio * currentprice)) - gdsupply\n     * @param _token The reserve token\n     * @return How much to mint in order to keep price in bonding curve the same\n     */\n    function calculateMintExpansion(ERC20 _token)\n        public\n        view\n        onlyActiveToken(_token)\n        returns (uint256)\n    {\n        ReserveToken memory reserveToken = reserveTokens[address(_token)];\n        uint32 newReserveRatio = calculateNewReserveRatio(_token); // new reserve ratio\n        uint256 reserveDecimalsDiff = uint256(\n            uint256(27).sub(ERC20Detailed(address(_token)).decimals())\n        ); // //result is in RAY precision\n        uint256 denom = rmul(\n            uint256(newReserveRatio).mul(1e21),\n            currentPrice(_token).mul(10**reserveDecimalsDiff)\n        ); // (newreserveratio * currentprice) in RAY precision\n        GoodDollar gooddollar = GoodDollar(address(avatar.nativeToken()));\n        uint256 gdDecimalsDiff = uint256(27).sub(uint256(gooddollar.decimals()));\n        uint256 toMint = rdiv(\n            reserveToken.reserveSupply.mul(10**reserveDecimalsDiff), // reservebalance in RAY precision\n            denom\n        )\n            .div(10**gdDecimalsDiff); // return to gd precision\n        return toMint.sub(reserveToken.gdSupply);\n    }\n\n    /**\n     * @dev Updates bonding curve based on expansion change and new minted amount\n     * @param _token The reserve token\n     * @return How much to mint in order to keep price in bonding curve the same\n     */\n    function mintExpansion(ERC20 _token) public onlyOwner returns (uint256) {\n        uint256 toMint = calculateMintExpansion(_token);\n        ReserveToken storage reserveToken = reserveTokens[address(_token)];\n        uint256 gdSupply = reserveToken.gdSupply;\n        uint256 ratio = reserveToken.reserveRatio;\n        reserveToken.gdSupply = gdSupply.add(toMint);\n        expandReserveRatio(_token);\n        emit UBIExpansionMinted(msg.sender, address(_token), ratio, gdSupply, toMint);\n        return toMint;\n    }\n}\n",
  "sourcePath": "/Users/hadar/workspace/GoodDollar/GoodBootstrap/packages/contracts/stakingModel/contracts/GoodMarketMaker.sol",
  "compiler": {
    "name": "solc",
    "version": "0.5.16+commit.9c3226ce.Emscripten.clang"
  },
  "schemaVersion": "3.2.2",
  "updatedAt": "2021-02-02T21:24:20.952Z",
  "devdoc": {
    "methods": {
      "buy(address,uint256)": {
        "details": "Updates the _token bonding curve params. Emits `BalancesUpdated` with the new reserve token information.",
        "params": {
          "_token": "The reserve token buying with",
          "_tokenAmount": "The amount of reserve token buying with"
        },
        "return": "(gdReturn) Number of GD that will be given in exchange as calculated by the bonding curve"
      },
      "buyReturn(address,uint256)": {
        "details": "Calculates the buy return in GD according to the given _tokenAmount",
        "params": {
          "_token": "The reserve token buying with",
          "_tokenAmount": "The amount of reserve token buying with"
        },
        "return": "Number of GD that should be given in exchange as calculated by the bonding curve"
      },
      "calculateCrossConnectorReturn(uint256,uint32,uint256,uint32,uint256)": {
        "details": "deprecated, backward compatibility"
      },
      "calculateCrossReserveReturn(uint256,uint32,uint256,uint32,uint256)": {
        "details": "given two reserve balances/ratios and a sell amount (in the first reserve token), calculates the return for a conversion from the first reserve token to the second reserve token (in the second reserve token) note that prior to version 4, you should use 'calculateCrossConnectorReturn' instead     * Formula: Return = _toReserveBalance * (1 - (_fromReserveBalance / (_fromReserveBalance + _amount)) ^ (_fromReserveRatio / _toReserveRatio))",
        "params": {
          "_amount": "input reserve amount",
          "_fromReserveBalance": "input reserve balance",
          "_fromReserveRatio": "input reserve ratio, represented in ppm, 1-1000000",
          "_toReserveBalance": "output reserve balance",
          "_toReserveRatio": "output reserve ratio, represented in ppm, 1-1000000"
        },
        "return": "second reserve amount"
      },
      "calculateFundCost(uint256,uint256,uint32,uint256)": {
        "details": "given a smart token supply, reserve balance, total ratio and an amount of requested smart tokens, calculates the amount of reserve tokens required for purchasing the given amount of smart tokens     * Formula: Return = _reserveBalance * (((_supply + _amount) / _supply) ^ (MAX_RATIO / _totalRatio) - 1)",
        "params": {
          "_amount": "requested amount of smart tokens",
          "_reserveBalance": "reserve token balance",
          "_supply": "smart token supply",
          "_totalRatio": "total ratio, represented in ppm, 2-2000000"
        },
        "return": "amount of reserve tokens"
      },
      "calculateLiquidateReturn(uint256,uint256,uint32,uint256)": {
        "details": "given a smart token supply, reserve balance, total ratio and an amount of smart tokens to liquidate, calculates the amount of reserve tokens received for selling the given amount of smart tokens     * Formula: Return = _reserveBalance * (1 - ((_supply - _amount) / _supply) ^ (MAX_RATIO / _totalRatio))",
        "params": {
          "_amount": "amount of smart tokens to liquidate",
          "_reserveBalance": "reserve token balance",
          "_supply": "smart token supply",
          "_totalRatio": "total ratio, represented in ppm, 2-2000000"
        },
        "return": "amount of reserve tokens"
      },
      "calculateMintExpansion(address)": {
        "details": "Calculate how much G$ to mint based on expansion change (new reserve ratio), in order to keep G$ price the same at the bonding curve. the formula to calculate the gd to mint: gd to mint = (reservebalance / (newreserveratio * currentprice)) - gdsupply",
        "params": {
          "_token": "The reserve token"
        },
        "return": "How much to mint in order to keep price in bonding curve the same"
      },
      "calculateMintInterest(address,uint256)": {
        "details": "Calculates how much G$ to mint based on added token supply (from interest) and on current reserve ratio, in order to keep G$ price the same at the bonding curve formula to calculate the gd to mint: gd to mint = addreservebalance * (gdsupply / (reservebalance * reserveratio))",
        "params": {
          "_addTokenSupply": "amount of token added to supply",
          "_token": "the reserve token"
        },
        "return": "how much to mint in order to keep price in bonding curve the same"
      },
      "calculateNewReserveRatio(address)": {
        "details": "Calculates how much to decrease the reserve ratio for _token by the `reserveRatioDailyExpansion`",
        "params": {
          "_token": "The reserve token to calculate the reserve ratio for"
        },
        "return": "The new reserve ratio"
      },
      "calculatePurchaseReturn(uint256,uint256,uint32,uint256)": {
        "details": "given a token supply, reserve balance, ratio and a deposit amount (in the reserve token), calculates the return for a given conversion (in the main token)     * Formula: Return = _supply * ((1 + _depositAmount / _reserveBalance) ^ (_reserveRatio / 1000000) - 1)",
        "params": {
          "_depositAmount": "deposit amount, in reserve token",
          "_reserveBalance": "total reserve balance",
          "_reserveRatio": "reserve ratio, represented in ppm, 1-1000000",
          "_supply": "token total supply"
        },
        "return": "purchase return amount"
      },
      "calculateSaleReturn(uint256,uint256,uint32,uint256)": {
        "details": "given a token supply, reserve balance, ratio and a sell amount (in the main token), calculates the return for a given conversion (in the reserve token)     * Formula: Return = _reserveBalance * (1 - (1 - _sellAmount / _supply) ^ (1000000 / _reserveRatio))",
        "params": {
          "_reserveBalance": "total reserve",
          "_reserveRatio": "constant reserve Ratio, represented in ppm, 1-1000000",
          "_sellAmount": "sell amount, in the token itself",
          "_supply": "token total supply"
        },
        "return": "sale return amount"
      },
      "constructor": {
        "details": "Constructor",
        "params": {
          "_avatar": "The avatar of the DAO",
          "_denom": "The denominator to calculate the global `reserveRatioDailyExpansion` from",
          "_nom": "The numerator to calculate the global `reserveRatioDailyExpansion` from"
        }
      },
      "currentPrice(address)": {
        "details": "Current price of GD in `token`. currently only cDAI is supported.",
        "params": {
          "_token": "The desired reserve token to have"
        },
        "return": "price of GD"
      },
      "expandReserveRatio(address)": {
        "details": "Decreases the reserve ratio for _token by the `reserveRatioDailyExpansion`",
        "params": {
          "_token": "The token to change the reserve ratio for"
        },
        "return": "The new reserve ratio"
      },
      "initializeToken(address,uint256,uint256,uint32)": {
        "details": "Initialize a reserve token entity with the given parameters",
        "params": {
          "_gdSupply": "Initial supply of GD to set the price",
          "_reserveRatio": "The starting reserve ratio",
          "_token": "The reserve token",
          "_tokenSupply": "Initial supply of reserve token to set the price"
        }
      },
      "isOwner()": {
        "return": "true if `msg.sender` is the owner of the contract."
      },
      "isRegistered()": {
        "details": "function to see if an avatar has been set and if this scheme is registered",
        "return": "true if scheme is registered"
      },
      "isRegistered(address)": {
        "details": "function to see if an avatar has been set and if this scheme is registered",
        "return": "true if scheme is registered"
      },
      "mintExpansion(address)": {
        "details": "Updates bonding curve based on expansion change and new minted amount",
        "params": {
          "_token": "The reserve token"
        },
        "return": "How much to mint in order to keep price in bonding curve the same"
      },
      "mintInterest(address,uint256)": {
        "details": "Updates bonding curve based on _addTokenSupply and new minted amount",
        "params": {
          "_addTokenSupply": "Amount of token added to supply",
          "_token": "The reserve token"
        },
        "return": "How much to mint in order to keep price in bonding curve the same"
      },
      "owner()": {
        "return": "the address of the owner."
      },
      "renounceOwnership()": {
        "details": "Allows the current owner to relinquish control of the contract."
      },
      "sell(address,uint256)": {
        "details": "Updates the _token bonding curve params. Emits `BalancesUpdated` with the new reserve token information.",
        "params": {
          "_gdAmount": "The amount of GD that are sold",
          "_token": "The desired reserve token to have"
        },
        "return": "Number of tokens that will be given in exchange as calculated by the bonding curve"
      },
      "sellReturn(address,uint256)": {
        "details": "Calculates the sell return in _token according to the given _gdAmount",
        "params": {
          "_gdAmount": "The amount of GD that are sold",
          "_token": "The desired reserve token to have"
        },
        "return": "Number of tokens that should be given in exchange as calculated by the bonding curve"
      },
      "sellWithContribution(address,uint256,uint256)": {
        "details": "Calculates the sell return with contribution in _token and update the bonding curve params. Emits `BalancesUpdated` with the new reserve token information.",
        "params": {
          "_contributionGdAmount": "The number of GD tokens that will not be traded for the reserve token",
          "_gdAmount": "The amount of GD that are sold",
          "_token": "The desired reserve token to have"
        },
        "return": "Number of tokens that will be given in exchange as calculated by the bonding curve"
      },
      "setAvatar(address)": {
        "details": "Function to set a new avatar and controller for scheme can only be done by owner of scheme"
      },
      "setReserveRatioDailyExpansion(uint256,uint256)": {
        "details": "Allows the DAO to change the daily expansion rate it is calculated by _nom/_denom with e27 precision. Emits `ReserveRatioUpdated` event after the ratio has changed. Only Avatar can call this method.",
        "params": {
          "_denom": "The denominator to calculate the global `reserveRatioDailyExpansion` from",
          "_nom": "The numerator to calculate the global `reserveRatioDailyExpansion` from"
        }
      },
      "transferOwnership(address)": {
        "details": "Allows the current owner to transfer control of the contract to a newOwner.",
        "params": {
          "newOwner": "The address to transfer ownership to."
        }
      }
    },
    "title": "Dynamic reserve ratio market maker"
  },
  "userdoc": {
    "methods": {
      "renounceOwnership()": {
        "notice": "Renouncing to ownership will leave the contract without an owner. It will not be possible to call the functions with the `onlyOwner` modifier anymore."
      }
    }
  }
}